{
  "address": "0x96aab3fa45c6BB46029768976aE54BB87DA1e3c2",
  "abi": [
    {
      "inputs": [
        {
          "internalType": "address",
          "name": "communityAddress",
          "type": "address"
        },
        {
          "internalType": "address",
          "name": "caller",
          "type": "address"
        }
      ],
      "name": "Collection__OnlyCallableThroughCommunityContract",
      "type": "error"
    },
    {
      "anonymous": false,
      "inputs": [
        {
          "indexed": true,
          "internalType": "address",
          "name": "account",
          "type": "address"
        },
        {
          "indexed": true,
          "internalType": "address",
          "name": "operator",
          "type": "address"
        },
        {
          "indexed": false,
          "internalType": "bool",
          "name": "approved",
          "type": "bool"
        }
      ],
      "name": "ApprovalForAll",
      "type": "event"
    },
    {
      "anonymous": false,
      "inputs": [
        {
          "indexed": false,
          "internalType": "uint8",
          "name": "version",
          "type": "uint8"
        }
      ],
      "name": "Initialized",
      "type": "event"
    },
    {
      "anonymous": false,
      "inputs": [
        {
          "indexed": true,
          "internalType": "address",
          "name": "operator",
          "type": "address"
        },
        {
          "indexed": true,
          "internalType": "address",
          "name": "from",
          "type": "address"
        },
        {
          "indexed": true,
          "internalType": "address",
          "name": "to",
          "type": "address"
        },
        {
          "indexed": false,
          "internalType": "uint256[]",
          "name": "ids",
          "type": "uint256[]"
        },
        {
          "indexed": false,
          "internalType": "uint256[]",
          "name": "values",
          "type": "uint256[]"
        }
      ],
      "name": "TransferBatch",
      "type": "event"
    },
    {
      "anonymous": false,
      "inputs": [
        {
          "indexed": true,
          "internalType": "address",
          "name": "operator",
          "type": "address"
        },
        {
          "indexed": true,
          "internalType": "address",
          "name": "from",
          "type": "address"
        },
        {
          "indexed": true,
          "internalType": "address",
          "name": "to",
          "type": "address"
        },
        {
          "indexed": false,
          "internalType": "uint256",
          "name": "id",
          "type": "uint256"
        },
        {
          "indexed": false,
          "internalType": "uint256",
          "name": "value",
          "type": "uint256"
        }
      ],
      "name": "TransferSingle",
      "type": "event"
    },
    {
      "anonymous": false,
      "inputs": [
        {
          "indexed": false,
          "internalType": "string",
          "name": "value",
          "type": "string"
        },
        {
          "indexed": true,
          "internalType": "uint256",
          "name": "id",
          "type": "uint256"
        }
      ],
      "name": "URI",
      "type": "event"
    },
    {
      "inputs": [
        {
          "internalType": "address",
          "name": "account",
          "type": "address"
        },
        {
          "internalType": "uint256",
          "name": "id",
          "type": "uint256"
        }
      ],
      "name": "balanceOf",
      "outputs": [
        {
          "internalType": "uint256",
          "name": "",
          "type": "uint256"
        }
      ],
      "stateMutability": "view",
      "type": "function"
    },
    {
      "inputs": [
        {
          "internalType": "address[]",
          "name": "accounts",
          "type": "address[]"
        },
        {
          "internalType": "uint256[]",
          "name": "ids",
          "type": "uint256[]"
        }
      ],
      "name": "balanceOfBatch",
      "outputs": [
        {
          "internalType": "uint256[]",
          "name": "",
          "type": "uint256[]"
        }
      ],
      "stateMutability": "view",
      "type": "function"
    },
    {
      "inputs": [],
      "name": "baseMetadataURI",
      "outputs": [
        {
          "internalType": "string",
          "name": "",
          "type": "string"
        }
      ],
      "stateMutability": "view",
      "type": "function"
    },
    {
      "inputs": [],
      "name": "getURI",
      "outputs": [
        {
          "internalType": "string",
          "name": "",
          "type": "string"
        }
      ],
      "stateMutability": "view",
      "type": "function"
    },
    {
      "inputs": [
        {
          "internalType": "address",
          "name": "_owner",
          "type": "address"
        },
        {
          "internalType": "address",
          "name": "_communityAddress",
          "type": "address"
        },
        {
          "internalType": "string",
          "name": "_baseMetadataURI",
          "type": "string"
        }
      ],
      "name": "initialize",
      "outputs": [],
      "stateMutability": "nonpayable",
      "type": "function"
    },
    {
      "inputs": [
        {
          "internalType": "address",
          "name": "account",
          "type": "address"
        },
        {
          "internalType": "address",
          "name": "operator",
          "type": "address"
        }
      ],
      "name": "isApprovedForAll",
      "outputs": [
        {
          "internalType": "bool",
          "name": "",
          "type": "bool"
        }
      ],
      "stateMutability": "view",
      "type": "function"
    },
    {
      "inputs": [
        {
          "internalType": "address",
          "name": "_to",
          "type": "address"
        },
        {
          "internalType": "uint256",
          "name": "_id",
          "type": "uint256"
        },
        {
          "internalType": "uint256",
          "name": "_amount",
          "type": "uint256"
        }
      ],
      "name": "mint",
      "outputs": [],
      "stateMutability": "nonpayable",
      "type": "function"
    },
    {
      "inputs": [],
      "name": "owner",
      "outputs": [
        {
          "internalType": "address",
          "name": "",
          "type": "address"
        }
      ],
      "stateMutability": "view",
      "type": "function"
    },
    {
      "inputs": [
        {
          "internalType": "address",
          "name": "from",
          "type": "address"
        },
        {
          "internalType": "address",
          "name": "to",
          "type": "address"
        },
        {
          "internalType": "uint256[]",
          "name": "ids",
          "type": "uint256[]"
        },
        {
          "internalType": "uint256[]",
          "name": "amounts",
          "type": "uint256[]"
        },
        {
          "internalType": "bytes",
          "name": "data",
          "type": "bytes"
        }
      ],
      "name": "safeBatchTransferFrom",
      "outputs": [],
      "stateMutability": "nonpayable",
      "type": "function"
    },
    {
      "inputs": [
        {
          "internalType": "address",
          "name": "from",
          "type": "address"
        },
        {
          "internalType": "address",
          "name": "to",
          "type": "address"
        },
        {
          "internalType": "uint256",
          "name": "id",
          "type": "uint256"
        },
        {
          "internalType": "uint256",
          "name": "amount",
          "type": "uint256"
        },
        {
          "internalType": "bytes",
          "name": "data",
          "type": "bytes"
        }
      ],
      "name": "safeTransferFrom",
      "outputs": [],
      "stateMutability": "nonpayable",
      "type": "function"
    },
    {
      "inputs": [
        {
          "internalType": "address",
          "name": "operator",
          "type": "address"
        },
        {
          "internalType": "bool",
          "name": "approved",
          "type": "bool"
        }
      ],
      "name": "setApprovalForAll",
      "outputs": [],
      "stateMutability": "nonpayable",
      "type": "function"
    },
    {
      "inputs": [
        {
          "internalType": "bytes4",
          "name": "interfaceId",
          "type": "bytes4"
        }
      ],
      "name": "supportsInterface",
      "outputs": [
        {
          "internalType": "bool",
          "name": "",
          "type": "bool"
        }
      ],
      "stateMutability": "view",
      "type": "function"
    },
    {
      "inputs": [
        {
          "internalType": "uint256",
          "name": "",
          "type": "uint256"
        }
      ],
      "name": "uri",
      "outputs": [
        {
          "internalType": "string",
          "name": "",
          "type": "string"
        }
      ],
      "stateMutability": "view",
      "type": "function"
    }
  ],
  "transactionHash": "0x88a83fcfeade78c299d50c9cb17ca4ff7192d21f05a58d3eca1d0bc181005765",
  "args": [],
  "numDeployments": 5,
  "solcInputHash": "99652aee9c9ed5e00703f6a58986ae9a",
  "bytecode": "0x608060405234801561001057600080fd5b506130f6806100206000396000f3fe608060405234801561001057600080fd5b50600436106100ce5760003560e01c80634e1273f41161008c5780638da5cb5b116100665780638da5cb5b14610223578063a22cb46514610241578063e985e9c51461025d578063f242432a1461028d576100ce565b80634e1273f4146101b75780635b2bd79e146101e75780637754305c14610205576100ce565b8062fdd58e146100d357806301ffc9a7146101035780630e89341c14610133578063156e29f6146101635780632eb2c2d61461017f5780634571e3a61461019b575b600080fd5b6100ed60048036038101906100e89190611bb2565b6102a9565b6040516100fa9190611c01565b60405180910390f35b61011d60048036038101906101189190611c74565b610373565b60405161012a9190611cbc565b60405180910390f35b61014d60048036038101906101489190611cd7565b610455565b60405161015a9190611d9d565b60405180910390f35b61017d60048036038101906101789190611dbf565b6104e9565b005b6101996004803603810190610194919061200f565b6105bf565b005b6101b560048036038101906101b0919061217f565b610660565b005b6101d160048036038101906101cc91906122b1565b61083b565b6040516101de91906123e7565b60405180910390f35b6101ef610954565b6040516101fc9190611d9d565b60405180910390f35b61020d6109e2565b60405161021a9190611d9d565b60405180910390f35b61022b610a74565b6040516102389190612418565b60405180910390f35b61025b6004803603810190610256919061245f565b610a9a565b005b6102776004803603810190610272919061249f565b610ab0565b6040516102849190611cbc565b60405180910390f35b6102a760048036038101906102a291906124df565b610b44565b005b60008073ffffffffffffffffffffffffffffffffffffffff168373ffffffffffffffffffffffffffffffffffffffff16141561031a576040517f08c379a0000000000000000000000000000000000000000000000000000000008152600401610311906125e8565b60405180910390fd5b6065600083815260200190815260200160002060008473ffffffffffffffffffffffffffffffffffffffff1673ffffffffffffffffffffffffffffffffffffffff16815260200190815260200160002054905092915050565b60007fd9b67a26000000000000000000000000000000000000000000000000000000007bffffffffffffffffffffffffffffffffffffffffffffffffffffffff1916827bffffffffffffffffffffffffffffffffffffffffffffffffffffffff1916148061043e57507f0e89341c000000000000000000000000000000000000000000000000000000007bffffffffffffffffffffffffffffffffffffffffffffffffffffffff1916827bffffffffffffffffffffffffffffffffffffffffffffffffffffffff1916145b8061044e575061044d82610be5565b5b9050919050565b60606067805461046490612637565b80601f016020809104026020016040519081016040528092919081815260200182805461049090612637565b80156104dd5780601f106104b2576101008083540402835291602001916104dd565b820191906000526020600020905b8154815290600101906020018083116104c057829003601f168201915b50505050509050919050565b609860009054906101000a900473ffffffffffffffffffffffffffffffffffffffff1673ffffffffffffffffffffffffffffffffffffffff163373ffffffffffffffffffffffffffffffffffffffff161461059f57609860009054906101000a900473ffffffffffffffffffffffffffffffffffffffff16336040517f235db406000000000000000000000000000000000000000000000000000000008152600401610596929190612669565b60405180910390fd5b6105ba83838360405180602001604052806000815250610c4f565b505050565b6105c7610e01565b73ffffffffffffffffffffffffffffffffffffffff168573ffffffffffffffffffffffffffffffffffffffff16148061060d575061060c85610607610e01565b610ab0565b5b61064c576040517f08c379a000000000000000000000000000000000000000000000000000000000815260040161064390612704565b60405180910390fd5b6106598585858585610e09565b5050505050565b60008060019054906101000a900460ff161590508080156106915750600160008054906101000a900460ff1660ff16105b806106be57506106a03061112e565b1580156106bd5750600160008054906101000a900460ff1660ff16145b5b6106fd576040517f08c379a00000000000000000000000000000000000000000000000000000000081526004016106f490612796565b60405180910390fd5b60016000806101000a81548160ff021916908360ff160217905550801561073a576001600060016101000a81548160ff0219169083151502179055505b83609760006101000a81548173ffffffffffffffffffffffffffffffffffffffff021916908373ffffffffffffffffffffffffffffffffffffffff16021790555082609860006101000a81548173ffffffffffffffffffffffffffffffffffffffff021916908373ffffffffffffffffffffffffffffffffffffffff16021790555081609990805190602001906107d2929190611a67565b506107dc82611151565b80156108355760008060016101000a81548160ff0219169083151502179055507f7f26b83ff96e1f2b6a682f133852f6798a09c465da95921460cefb3847402498600160405161082c9190612808565b60405180910390a15b50505050565b60608151835114610881576040517f08c379a000000000000000000000000000000000000000000000000000000000815260040161087890612895565b60405180910390fd5b6000835167ffffffffffffffff81111561089e5761089d611e17565b5b6040519080825280602002602001820160405280156108cc5781602001602082028036833780820191505090505b50905060005b8451811015610949576109198582815181106108f1576108f06128b5565b5b602002602001015185838151811061090c5761090b6128b5565b5b60200260200101516102a9565b82828151811061092c5761092b6128b5565b5b6020026020010181815250508061094290612913565b90506108d2565b508091505092915050565b6099805461096190612637565b80601f016020809104026020016040519081016040528092919081815260200182805461098d90612637565b80156109da5780601f106109af576101008083540402835291602001916109da565b820191906000526020600020905b8154815290600101906020018083116109bd57829003601f168201915b505050505081565b6060609980546109f190612637565b80601f0160208091040260200160405190810160405280929190818152602001828054610a1d90612637565b8015610a6a5780601f10610a3f57610100808354040283529160200191610a6a565b820191906000526020600020905b815481529060010190602001808311610a4d57829003601f168201915b5050505050905090565b609760009054906101000a900473ffffffffffffffffffffffffffffffffffffffff1681565b610aac610aa5610e01565b83836111ac565b5050565b6000606660008473ffffffffffffffffffffffffffffffffffffffff1673ffffffffffffffffffffffffffffffffffffffff16815260200190815260200160002060008373ffffffffffffffffffffffffffffffffffffffff1673ffffffffffffffffffffffffffffffffffffffff16815260200190815260200160002060009054906101000a900460ff16905092915050565b610b4c610e01565b73ffffffffffffffffffffffffffffffffffffffff168573ffffffffffffffffffffffffffffffffffffffff161480610b925750610b9185610b8c610e01565b610ab0565b5b610bd1576040517f08c379a0000000000000000000000000000000000000000000000000000000008152600401610bc890612704565b60405180910390fd5b610bde8585858585611319565b5050505050565b60007f01ffc9a7000000000000000000000000000000000000000000000000000000007bffffffffffffffffffffffffffffffffffffffffffffffffffffffff1916827bffffffffffffffffffffffffffffffffffffffffffffffffffffffff1916149050919050565b600073ffffffffffffffffffffffffffffffffffffffff168473ffffffffffffffffffffffffffffffffffffffff161415610cbf576040517f08c379a0000000000000000000000000000000000000000000000000000000008152600401610cb6906129ce565b60405180910390fd5b6000610cc9610e01565b90506000610cd6856115b8565b90506000610ce3856115b8565b9050610cf483600089858589611632565b846065600088815260200190815260200160002060008973ffffffffffffffffffffffffffffffffffffffff1673ffffffffffffffffffffffffffffffffffffffff1681526020019081526020016000206000828254610d5491906129ee565b925050819055508673ffffffffffffffffffffffffffffffffffffffff16600073ffffffffffffffffffffffffffffffffffffffff168473ffffffffffffffffffffffffffffffffffffffff167fc3d58168c5ae7397731d063d5bbf3d657854427343f4c083240f7aacaa2d0f628989604051610dd2929190612a44565b60405180910390a4610de98360008985858961163a565b610df883600089898989611642565b50505050505050565b600033905090565b8151835114610e4d576040517f08c379a0000000000000000000000000000000000000000000000000000000008152600401610e4490612adf565b60405180910390fd5b600073ffffffffffffffffffffffffffffffffffffffff168473ffffffffffffffffffffffffffffffffffffffff161415610ebd576040517f08c379a0000000000000000000000000000000000000000000000000000000008152600401610eb490612b71565b60405180910390fd5b6000610ec7610e01565b9050610ed7818787878787611632565b60005b845181101561108b576000858281518110610ef857610ef76128b5565b5b602002602001015190506000858381518110610f1757610f166128b5565b5b6020026020010151905060006065600084815260200190815260200160002060008b73ffffffffffffffffffffffffffffffffffffffff1673ffffffffffffffffffffffffffffffffffffffff16815260200190815260200160002054905081811015610fb9576040517f08c379a0000000000000000000000000000000000000000000000000000000008152600401610fb090612c03565b60405180910390fd5b8181036065600085815260200190815260200160002060008c73ffffffffffffffffffffffffffffffffffffffff1673ffffffffffffffffffffffffffffffffffffffff16815260200190815260200160002081905550816065600085815260200190815260200160002060008b73ffffffffffffffffffffffffffffffffffffffff1673ffffffffffffffffffffffffffffffffffffffff168152602001908152602001600020600082825461107091906129ee565b925050819055505050508061108490612913565b9050610eda565b508473ffffffffffffffffffffffffffffffffffffffff168673ffffffffffffffffffffffffffffffffffffffff168273ffffffffffffffffffffffffffffffffffffffff167f4a39dc06d4c0dbc64b70af90fd698a233a518aa5d07e595d983b8c0526c8f7fb8787604051611102929190612c23565b60405180910390a461111881878787878761163a565b61112681878787878761181a565b505050505050565b6000808273ffffffffffffffffffffffffffffffffffffffff163b119050919050565b600060019054906101000a900460ff166111a0576040517f08c379a000000000000000000000000000000000000000000000000000000000815260040161119790612ccc565b60405180910390fd5b6111a9816119f2565b50565b8173ffffffffffffffffffffffffffffffffffffffff168373ffffffffffffffffffffffffffffffffffffffff16141561121b576040517f08c379a000000000000000000000000000000000000000000000000000000000815260040161121290612d5e565b60405180910390fd5b80606660008573ffffffffffffffffffffffffffffffffffffffff1673ffffffffffffffffffffffffffffffffffffffff16815260200190815260200160002060008473ffffffffffffffffffffffffffffffffffffffff1673ffffffffffffffffffffffffffffffffffffffff16815260200190815260200160002060006101000a81548160ff0219169083151502179055508173ffffffffffffffffffffffffffffffffffffffff168373ffffffffffffffffffffffffffffffffffffffff167f17307eab39ab6107e8899845ad3d59bd9653f200f220920489ca2b5937696c318360405161130c9190611cbc565b60405180910390a3505050565b600073ffffffffffffffffffffffffffffffffffffffff168473ffffffffffffffffffffffffffffffffffffffff161415611389576040517f08c379a000000000000000000000000000000000000000000000000000000000815260040161138090612b71565b60405180910390fd5b6000611393610e01565b905060006113a0856115b8565b905060006113ad856115b8565b90506113bd838989858589611632565b60006065600088815260200190815260200160002060008a73ffffffffffffffffffffffffffffffffffffffff1673ffffffffffffffffffffffffffffffffffffffff16815260200190815260200160002054905085811015611455576040517f08c379a000000000000000000000000000000000000000000000000000000000815260040161144c90612c03565b60405180910390fd5b8581036065600089815260200190815260200160002060008b73ffffffffffffffffffffffffffffffffffffffff1673ffffffffffffffffffffffffffffffffffffffff16815260200190815260200160002081905550856065600089815260200190815260200160002060008a73ffffffffffffffffffffffffffffffffffffffff1673ffffffffffffffffffffffffffffffffffffffff168152602001908152602001600020600082825461150c91906129ee565b925050819055508773ffffffffffffffffffffffffffffffffffffffff168973ffffffffffffffffffffffffffffffffffffffff168573ffffffffffffffffffffffffffffffffffffffff167fc3d58168c5ae7397731d063d5bbf3d657854427343f4c083240f7aacaa2d0f628a8a604051611589929190612a44565b60405180910390a461159f848a8a86868a61163a565b6115ad848a8a8a8a8a611642565b505050505050505050565b60606000600167ffffffffffffffff8111156115d7576115d6611e17565b5b6040519080825280602002602001820160405280156116055781602001602082028036833780820191505090505b509050828160008151811061161d5761161c6128b5565b5b60200260200101818152505080915050919050565b505050505050565b505050505050565b6116618473ffffffffffffffffffffffffffffffffffffffff1661112e565b15611812578373ffffffffffffffffffffffffffffffffffffffff1663f23a6e6187878686866040518663ffffffff1660e01b81526004016116a7959493929190612dd3565b6020604051808303816000875af19250505080156116e357506040513d601f19601f820116820180604052508101906116e09190612e42565b60015b611789576116ef612e7c565b806308c379a0141561174c5750611704612e9e565b8061170f575061174e565b806040517f08c379a00000000000000000000000000000000000000000000000000000000081526004016117439190611d9d565b60405180910390fd5b505b6040517f08c379a000000000000000000000000000000000000000000000000000000000815260040161178090612fa6565b60405180910390fd5b63f23a6e6160e01b7bffffffffffffffffffffffffffffffffffffffffffffffffffffffff1916817bffffffffffffffffffffffffffffffffffffffffffffffffffffffff191614611810576040517f08c379a000000000000000000000000000000000000000000000000000000000815260040161180790613038565b60405180910390fd5b505b505050505050565b6118398473ffffffffffffffffffffffffffffffffffffffff1661112e565b156119ea578373ffffffffffffffffffffffffffffffffffffffff1663bc197c8187878686866040518663ffffffff1660e01b815260040161187f959493929190613058565b6020604051808303816000875af19250505080156118bb57506040513d601f19601f820116820180604052508101906118b89190612e42565b60015b611961576118c7612e7c565b806308c379a0141561192457506118dc612e9e565b806118e75750611926565b806040517f08c379a000000000000000000000000000000000000000000000000000000000815260040161191b9190611d9d565b60405180910390fd5b505b6040517f08c379a000000000000000000000000000000000000000000000000000000000815260040161195890612fa6565b60405180910390fd5b63bc197c8160e01b7bffffffffffffffffffffffffffffffffffffffffffffffffffffffff1916817bffffffffffffffffffffffffffffffffffffffffffffffffffffffff1916146119e8576040517f08c379a00000000000000000000000000000000000000000000000000000000081526004016119df90613038565b60405180910390fd5b505b505050505050565b600060019054906101000a900460ff16611a41576040517f08c379a0000000000000000000000000000000000000000000000000000000008152600401611a3890612ccc565b60405180910390fd5b611a4a81611a4d565b50565b8060679080519060200190611a63929190611a67565b5050565b828054611a7390612637565b90600052602060002090601f016020900481019282611a955760008555611adc565b82601f10611aae57805160ff1916838001178555611adc565b82800160010185558215611adc579182015b82811115611adb578251825591602001919060010190611ac0565b5b509050611ae99190611aed565b5090565b5b80821115611b06576000816000905550600101611aee565b5090565b6000604051905090565b600080fd5b600080fd5b600073ffffffffffffffffffffffffffffffffffffffff82169050919050565b6000611b4982611b1e565b9050919050565b611b5981611b3e565b8114611b6457600080fd5b50565b600081359050611b7681611b50565b92915050565b6000819050919050565b611b8f81611b7c565b8114611b9a57600080fd5b50565b600081359050611bac81611b86565b92915050565b60008060408385031215611bc957611bc8611b14565b5b6000611bd785828601611b67565b9250506020611be885828601611b9d565b9150509250929050565b611bfb81611b7c565b82525050565b6000602082019050611c166000830184611bf2565b92915050565b60007fffffffff0000000000000000000000000000000000000000000000000000000082169050919050565b611c5181611c1c565b8114611c5c57600080fd5b50565b600081359050611c6e81611c48565b92915050565b600060208284031215611c8a57611c89611b14565b5b6000611c9884828501611c5f565b91505092915050565b60008115159050919050565b611cb681611ca1565b82525050565b6000602082019050611cd16000830184611cad565b92915050565b600060208284031215611ced57611cec611b14565b5b6000611cfb84828501611b9d565b91505092915050565b600081519050919050565b600082825260208201905092915050565b60005b83811015611d3e578082015181840152602081019050611d23565b83811115611d4d576000848401525b50505050565b6000601f19601f8301169050919050565b6000611d6f82611d04565b611d798185611d0f565b9350611d89818560208601611d20565b611d9281611d53565b840191505092915050565b60006020820190508181036000830152611db78184611d64565b905092915050565b600080600060608486031215611dd857611dd7611b14565b5b6000611de686828701611b67565b9350506020611df786828701611b9d565b9250506040611e0886828701611b9d565b9150509250925092565b600080fd5b7f4e487b7100000000000000000000000000000000000000000000000000000000600052604160045260246000fd5b611e4f82611d53565b810181811067ffffffffffffffff82111715611e6e57611e6d611e17565b5b80604052505050565b6000611e81611b0a565b9050611e8d8282611e46565b919050565b600067ffffffffffffffff821115611ead57611eac611e17565b5b602082029050602081019050919050565b600080fd5b6000611ed6611ed184611e92565b611e77565b90508083825260208201905060208402830185811115611ef957611ef8611ebe565b5b835b81811015611f225780611f0e8882611b9d565b845260208401935050602081019050611efb565b5050509392505050565b600082601f830112611f4157611f40611e12565b5b8135611f51848260208601611ec3565b91505092915050565b600080fd5b600067ffffffffffffffff821115611f7a57611f79611e17565b5b611f8382611d53565b9050602081019050919050565b82818337600083830152505050565b6000611fb2611fad84611f5f565b611e77565b905082815260208101848484011115611fce57611fcd611f5a565b5b611fd9848285611f90565b509392505050565b600082601f830112611ff657611ff5611e12565b5b8135612006848260208601611f9f565b91505092915050565b600080600080600060a0868803121561202b5761202a611b14565b5b600061203988828901611b67565b955050602061204a88828901611b67565b945050604086013567ffffffffffffffff81111561206b5761206a611b19565b5b61207788828901611f2c565b935050606086013567ffffffffffffffff81111561209857612097611b19565b5b6120a488828901611f2c565b925050608086013567ffffffffffffffff8111156120c5576120c4611b19565b5b6120d188828901611fe1565b9150509295509295909350565b600067ffffffffffffffff8211156120f9576120f8611e17565b5b61210282611d53565b9050602081019050919050565b600061212261211d846120de565b611e77565b90508281526020810184848401111561213e5761213d611f5a565b5b612149848285611f90565b509392505050565b600082601f83011261216657612165611e12565b5b813561217684826020860161210f565b91505092915050565b60008060006060848603121561219857612197611b14565b5b60006121a686828701611b67565b93505060206121b786828701611b67565b925050604084013567ffffffffffffffff8111156121d8576121d7611b19565b5b6121e486828701612151565b9150509250925092565b600067ffffffffffffffff82111561220957612208611e17565b5b602082029050602081019050919050565b600061222d612228846121ee565b611e77565b905080838252602082019050602084028301858111156122505761224f611ebe565b5b835b8181101561227957806122658882611b67565b845260208401935050602081019050612252565b5050509392505050565b600082601f83011261229857612297611e12565b5b81356122a884826020860161221a565b91505092915050565b600080604083850312156122c8576122c7611b14565b5b600083013567ffffffffffffffff8111156122e6576122e5611b19565b5b6122f285828601612283565b925050602083013567ffffffffffffffff81111561231357612312611b19565b5b61231f85828601611f2c565b9150509250929050565b600081519050919050565b600082825260208201905092915050565b6000819050602082019050919050565b61235e81611b7c565b82525050565b60006123708383612355565b60208301905092915050565b6000602082019050919050565b600061239482612329565b61239e8185612334565b93506123a983612345565b8060005b838110156123da5781516123c18882612364565b97506123cc8361237c565b9250506001810190506123ad565b5085935050505092915050565b600060208201905081810360008301526124018184612389565b905092915050565b61241281611b3e565b82525050565b600060208201905061242d6000830184612409565b92915050565b61243c81611ca1565b811461244757600080fd5b50565b60008135905061245981612433565b92915050565b6000806040838503121561247657612475611b14565b5b600061248485828601611b67565b92505060206124958582860161244a565b9150509250929050565b600080604083850312156124b6576124b5611b14565b5b60006124c485828601611b67565b92505060206124d585828601611b67565b9150509250929050565b600080600080600060a086880312156124fb576124fa611b14565b5b600061250988828901611b67565b955050602061251a88828901611b67565b945050604061252b88828901611b9d565b935050606061253c88828901611b9d565b925050608086013567ffffffffffffffff81111561255d5761255c611b19565b5b61256988828901611fe1565b9150509295509295909350565b7f455243313135353a2061646472657373207a65726f206973206e6f742061207660008201527f616c6964206f776e657200000000000000000000000000000000000000000000602082015250565b60006125d2602a83611d0f565b91506125dd82612576565b604082019050919050565b60006020820190508181036000830152612601816125c5565b9050919050565b7f4e487b7100000000000000000000000000000000000000000000000000000000600052602260045260246000fd5b6000600282049050600182168061264f57607f821691505b6020821081141561266357612662612608565b5b50919050565b600060408201905061267e6000830185612409565b61268b6020830184612409565b9392505050565b7f455243313135353a2063616c6c6572206973206e6f7420746f6b656e206f776e60008201527f6572206e6f7220617070726f7665640000000000000000000000000000000000602082015250565b60006126ee602f83611d0f565b91506126f982612692565b604082019050919050565b6000602082019050818103600083015261271d816126e1565b9050919050565b7f496e697469616c697a61626c653a20636f6e747261637420697320616c72656160008201527f647920696e697469616c697a6564000000000000000000000000000000000000602082015250565b6000612780602e83611d0f565b915061278b82612724565b604082019050919050565b600060208201905081810360008301526127af81612773565b9050919050565b6000819050919050565b600060ff82169050919050565b6000819050919050565b60006127f26127ed6127e8846127b6565b6127cd565b6127c0565b9050919050565b612802816127d7565b82525050565b600060208201905061281d60008301846127f9565b92915050565b7f455243313135353a206163636f756e747320616e6420696473206c656e67746860008201527f206d69736d617463680000000000000000000000000000000000000000000000602082015250565b600061287f602983611d0f565b915061288a82612823565b604082019050919050565b600060208201905081810360008301526128ae81612872565b9050919050565b7f4e487b7100000000000000000000000000000000000000000000000000000000600052603260045260246000fd5b7f4e487b7100000000000000000000000000000000000000000000000000000000600052601160045260246000fd5b600061291e82611b7c565b91507fffffffffffffffffffffffffffffffffffffffffffffffffffffffffffffffff821415612951576129506128e4565b5b600182019050919050565b7f455243313135353a206d696e7420746f20746865207a65726f2061646472657360008201527f7300000000000000000000000000000000000000000000000000000000000000602082015250565b60006129b8602183611d0f565b91506129c38261295c565b604082019050919050565b600060208201905081810360008301526129e7816129ab565b9050919050565b60006129f982611b7c565b9150612a0483611b7c565b9250827fffffffffffffffffffffffffffffffffffffffffffffffffffffffffffffffff03821115612a3957612a386128e4565b5b828201905092915050565b6000604082019050612a596000830185611bf2565b612a666020830184611bf2565b9392505050565b7f455243313135353a2069647320616e6420616d6f756e7473206c656e6774682060008201527f6d69736d61746368000000000000000000000000000000000000000000000000602082015250565b6000612ac9602883611d0f565b9150612ad482612a6d565b604082019050919050565b60006020820190508181036000830152612af881612abc565b9050919050565b7f455243313135353a207472616e7366657220746f20746865207a65726f20616460008201527f6472657373000000000000000000000000000000000000000000000000000000602082015250565b6000612b5b602583611d0f565b9150612b6682612aff565b604082019050919050565b60006020820190508181036000830152612b8a81612b4e565b9050919050565b7f455243313135353a20696e73756666696369656e742062616c616e636520666f60008201527f72207472616e7366657200000000000000000000000000000000000000000000602082015250565b6000612bed602a83611d0f565b9150612bf882612b91565b604082019050919050565b60006020820190508181036000830152612c1c81612be0565b9050919050565b60006040820190508181036000830152612c3d8185612389565b90508181036020830152612c518184612389565b90509392505050565b7f496e697469616c697a61626c653a20636f6e7472616374206973206e6f74206960008201527f6e697469616c697a696e67000000000000000000000000000000000000000000602082015250565b6000612cb6602b83611d0f565b9150612cc182612c5a565b604082019050919050565b60006020820190508181036000830152612ce581612ca9565b9050919050565b7f455243313135353a2073657474696e6720617070726f76616c2073746174757360008201527f20666f722073656c660000000000000000000000000000000000000000000000602082015250565b6000612d48602983611d0f565b9150612d5382612cec565b604082019050919050565b60006020820190508181036000830152612d7781612d3b565b9050919050565b600081519050919050565b600082825260208201905092915050565b6000612da582612d7e565b612daf8185612d89565b9350612dbf818560208601611d20565b612dc881611d53565b840191505092915050565b600060a082019050612de86000830188612409565b612df56020830187612409565b612e026040830186611bf2565b612e0f6060830185611bf2565b8181036080830152612e218184612d9a565b90509695505050505050565b600081519050612e3c81611c48565b92915050565b600060208284031215612e5857612e57611b14565b5b6000612e6684828501612e2d565b91505092915050565b60008160e01c9050919050565b600060033d1115612e9b5760046000803e612e98600051612e6f565b90505b90565b600060443d1015612eae57612f31565b612eb6611b0a565b60043d036004823e80513d602482011167ffffffffffffffff82111715612ede575050612f31565b808201805167ffffffffffffffff811115612efc5750505050612f31565b80602083010160043d038501811115612f19575050505050612f31565b612f2882602001850186611e46565b82955050505050505b90565b7f455243313135353a207472616e7366657220746f206e6f6e204552433131353560008201527f526563656976657220696d706c656d656e746572000000000000000000000000602082015250565b6000612f90603483611d0f565b9150612f9b82612f34565b604082019050919050565b60006020820190508181036000830152612fbf81612f83565b9050919050565b7f455243313135353a204552433131353552656365697665722072656a6563746560008201527f6420746f6b656e73000000000000000000000000000000000000000000000000602082015250565b6000613022602883611d0f565b915061302d82612fc6565b604082019050919050565b6000602082019050818103600083015261305181613015565b9050919050565b600060a08201905061306d6000830188612409565b61307a6020830187612409565b818103604083015261308c8186612389565b905081810360608301526130a08185612389565b905081810360808301526130b48184612d9a565b9050969550505050505056fea2646970667358221220e9126e80f3bdbe13f3dc22aadeeef0948d568463fc45602947b32e19e0c04caa64736f6c634300080a0033",
  "devdoc": {
    "kind": "dev",
    "methods": {
      "balanceOf(address,uint256)": {
        "details": "See {IERC1155-balanceOf}. Requirements: - `account` cannot be the zero address."
      },
      "balanceOfBatch(address[],uint256[])": {
        "details": "See {IERC1155-balanceOfBatch}. Requirements: - `accounts` and `ids` must have the same length."
      },
      "isApprovedForAll(address,address)": {
        "details": "See {IERC1155-isApprovedForAll}."
      },
      "safeBatchTransferFrom(address,address,uint256[],uint256[],bytes)": {
        "details": "See {IERC1155-safeBatchTransferFrom}."
      },
      "safeTransferFrom(address,address,uint256,uint256,bytes)": {
        "details": "See {IERC1155-safeTransferFrom}."
      },
      "setApprovalForAll(address,bool)": {
        "details": "See {IERC1155-setApprovalForAll}."
      },
      "supportsInterface(bytes4)": {
        "details": "See {IERC165-supportsInterface}."
      },
      "uri(uint256)": {
        "details": "See {IERC1155MetadataURI-uri}. This implementation returns the same URI for *all* token types. It relies on the token type ID substitution mechanism https://eips.ethereum.org/EIPS/eip-1155#metadata[defined in the EIP]. Clients calling this function must replace the `\\{id\\}` substring with the actual token type ID."
      }
    },
    "version": 1
  },
  "userdoc": {
    "kind": "user",
    "methods": {},
    "version": 1
  },
  "storageLayout": {
    "storage": [
      {
        "astId": 6,
        "contract": "contracts/Collection.sol:Collection",
        "label": "_initialized",
        "offset": 0,
        "slot": "0",
        "type": "t_uint8"
      },
      {
        "astId": 9,
        "contract": "contracts/Collection.sol:Collection",
        "label": "_initializing",
        "offset": 1,
        "slot": "0",
        "type": "t_bool"
      },
      {
        "astId": 1857,
        "contract": "contracts/Collection.sol:Collection",
        "label": "__gap",
        "offset": 0,
        "slot": "1",
        "type": "t_array(t_uint256)50_storage"
      },
      {
        "astId": 1901,
        "contract": "contracts/Collection.sol:Collection",
        "label": "__gap",
        "offset": 0,
        "slot": "51",
        "type": "t_array(t_uint256)50_storage"
      },
      {
        "astId": 179,
        "contract": "contracts/Collection.sol:Collection",
        "label": "_balances",
        "offset": 0,
        "slot": "101",
        "type": "t_mapping(t_uint256,t_mapping(t_address,t_uint256))"
      },
      {
        "astId": 185,
        "contract": "contracts/Collection.sol:Collection",
        "label": "_operatorApprovals",
        "offset": 0,
        "slot": "102",
        "type": "t_mapping(t_address,t_mapping(t_address,t_bool))"
      },
      {
        "astId": 187,
        "contract": "contracts/Collection.sol:Collection",
        "label": "_uri",
        "offset": 0,
        "slot": "103",
        "type": "t_string_storage"
      },
      {
        "astId": 1394,
        "contract": "contracts/Collection.sol:Collection",
        "label": "__gap",
        "offset": 0,
        "slot": "104",
        "type": "t_array(t_uint256)47_storage"
      },
      {
        "astId": 1929,
        "contract": "contracts/Collection.sol:Collection",
        "label": "owner",
        "offset": 0,
        "slot": "151",
        "type": "t_address"
      },
      {
        "astId": 1931,
        "contract": "contracts/Collection.sol:Collection",
        "label": "communityAddress",
        "offset": 0,
        "slot": "152",
        "type": "t_address"
      },
      {
        "astId": 1933,
        "contract": "contracts/Collection.sol:Collection",
        "label": "baseMetadataURI",
        "offset": 0,
        "slot": "153",
        "type": "t_string_storage"
      }
    ],
    "types": {
      "t_address": {
        "encoding": "inplace",
        "label": "address",
        "numberOfBytes": "20"
      },
      "t_array(t_uint256)47_storage": {
        "base": "t_uint256",
        "encoding": "inplace",
        "label": "uint256[47]",
        "numberOfBytes": "1504"
      },
      "t_array(t_uint256)50_storage": {
        "base": "t_uint256",
        "encoding": "inplace",
        "label": "uint256[50]",
        "numberOfBytes": "1600"
      },
      "t_bool": {
        "encoding": "inplace",
        "label": "bool",
        "numberOfBytes": "1"
      },
      "t_mapping(t_address,t_bool)": {
        "encoding": "mapping",
        "key": "t_address",
        "label": "mapping(address => bool)",
        "numberOfBytes": "32",
        "value": "t_bool"
      },
      "t_mapping(t_address,t_mapping(t_address,t_bool))": {
        "encoding": "mapping",
        "key": "t_address",
        "label": "mapping(address => mapping(address => bool))",
        "numberOfBytes": "32",
        "value": "t_mapping(t_address,t_bool)"
      },
      "t_mapping(t_address,t_uint256)": {
        "encoding": "mapping",
        "key": "t_address",
        "label": "mapping(address => uint256)",
        "numberOfBytes": "32",
        "value": "t_uint256"
      },
      "t_mapping(t_uint256,t_mapping(t_address,t_uint256))": {
        "encoding": "mapping",
        "key": "t_uint256",
        "label": "mapping(uint256 => mapping(address => uint256))",
        "numberOfBytes": "32",
        "value": "t_mapping(t_address,t_uint256)"
      },
      "t_string_storage": {
        "encoding": "bytes",
        "label": "string",
        "numberOfBytes": "32"
      },
      "t_uint256": {
        "encoding": "inplace",
        "label": "uint256",
        "numberOfBytes": "32"
      },
      "t_uint8": {
        "encoding": "inplace",
        "label": "uint8",
        "numberOfBytes": "1"
      }
    }
  }
}