{
  "address": "0xa2af19E78dA3E5910Ed6253344F022a02544544f",
  "abi": [
    {
      "inputs": [
        {
          "internalType": "address",
          "name": "communityAddress",
          "type": "address"
        },
        {
          "internalType": "address",
          "name": "caller",
          "type": "address"
        }
      ],
      "name": "Collection__OnlyCallableThroughCommunityContract",
      "type": "error"
    },
    {
      "anonymous": false,
      "inputs": [
        {
          "indexed": true,
          "internalType": "address",
          "name": "account",
          "type": "address"
        },
        {
          "indexed": true,
          "internalType": "address",
          "name": "operator",
          "type": "address"
        },
        {
          "indexed": false,
          "internalType": "bool",
          "name": "approved",
          "type": "bool"
        }
      ],
      "name": "ApprovalForAll",
      "type": "event"
    },
    {
      "anonymous": false,
      "inputs": [
        {
          "indexed": false,
          "internalType": "uint8",
          "name": "version",
          "type": "uint8"
        }
      ],
      "name": "Initialized",
      "type": "event"
    },
    {
      "anonymous": false,
      "inputs": [
        {
          "indexed": true,
          "internalType": "address",
          "name": "operator",
          "type": "address"
        },
        {
          "indexed": true,
          "internalType": "address",
          "name": "from",
          "type": "address"
        },
        {
          "indexed": true,
          "internalType": "address",
          "name": "to",
          "type": "address"
        },
        {
          "indexed": false,
          "internalType": "uint256[]",
          "name": "ids",
          "type": "uint256[]"
        },
        {
          "indexed": false,
          "internalType": "uint256[]",
          "name": "values",
          "type": "uint256[]"
        }
      ],
      "name": "TransferBatch",
      "type": "event"
    },
    {
      "anonymous": false,
      "inputs": [
        {
          "indexed": true,
          "internalType": "address",
          "name": "operator",
          "type": "address"
        },
        {
          "indexed": true,
          "internalType": "address",
          "name": "from",
          "type": "address"
        },
        {
          "indexed": true,
          "internalType": "address",
          "name": "to",
          "type": "address"
        },
        {
          "indexed": false,
          "internalType": "uint256",
          "name": "id",
          "type": "uint256"
        },
        {
          "indexed": false,
          "internalType": "uint256",
          "name": "value",
          "type": "uint256"
        }
      ],
      "name": "TransferSingle",
      "type": "event"
    },
    {
      "anonymous": false,
      "inputs": [
        {
          "indexed": false,
          "internalType": "string",
          "name": "value",
          "type": "string"
        },
        {
          "indexed": true,
          "internalType": "uint256",
          "name": "id",
          "type": "uint256"
        }
      ],
      "name": "URI",
      "type": "event"
    },
    {
      "inputs": [
        {
          "internalType": "address",
          "name": "account",
          "type": "address"
        },
        {
          "internalType": "uint256",
          "name": "id",
          "type": "uint256"
        }
      ],
      "name": "balanceOf",
      "outputs": [
        {
          "internalType": "uint256",
          "name": "",
          "type": "uint256"
        }
      ],
      "stateMutability": "view",
      "type": "function"
    },
    {
      "inputs": [
        {
          "internalType": "address[]",
          "name": "accounts",
          "type": "address[]"
        },
        {
          "internalType": "uint256[]",
          "name": "ids",
          "type": "uint256[]"
        }
      ],
      "name": "balanceOfBatch",
      "outputs": [
        {
          "internalType": "uint256[]",
          "name": "",
          "type": "uint256[]"
        }
      ],
      "stateMutability": "view",
      "type": "function"
    },
    {
      "inputs": [],
      "name": "baseMetadataURI",
      "outputs": [
        {
          "internalType": "string",
          "name": "",
          "type": "string"
        }
      ],
      "stateMutability": "view",
      "type": "function"
    },
    {
      "inputs": [
        {
          "internalType": "address",
          "name": "_owner",
          "type": "address"
        },
        {
          "internalType": "address",
          "name": "_communityAddress",
          "type": "address"
        },
        {
          "internalType": "string",
          "name": "_baseMetadataURI",
          "type": "string"
        }
      ],
      "name": "initialize",
      "outputs": [],
      "stateMutability": "nonpayable",
      "type": "function"
    },
    {
      "inputs": [
        {
          "internalType": "address",
          "name": "account",
          "type": "address"
        },
        {
          "internalType": "address",
          "name": "operator",
          "type": "address"
        }
      ],
      "name": "isApprovedForAll",
      "outputs": [
        {
          "internalType": "bool",
          "name": "",
          "type": "bool"
        }
      ],
      "stateMutability": "view",
      "type": "function"
    },
    {
      "inputs": [
        {
          "internalType": "address",
          "name": "_to",
          "type": "address"
        },
        {
          "internalType": "uint256",
          "name": "_id",
          "type": "uint256"
        },
        {
          "internalType": "uint256",
          "name": "_amount",
          "type": "uint256"
        }
      ],
      "name": "mint",
      "outputs": [],
      "stateMutability": "nonpayable",
      "type": "function"
    },
    {
      "inputs": [
        {
          "internalType": "address",
          "name": "from",
          "type": "address"
        },
        {
          "internalType": "address",
          "name": "to",
          "type": "address"
        },
        {
          "internalType": "uint256[]",
          "name": "ids",
          "type": "uint256[]"
        },
        {
          "internalType": "uint256[]",
          "name": "amounts",
          "type": "uint256[]"
        },
        {
          "internalType": "bytes",
          "name": "data",
          "type": "bytes"
        }
      ],
      "name": "safeBatchTransferFrom",
      "outputs": [],
      "stateMutability": "nonpayable",
      "type": "function"
    },
    {
      "inputs": [
        {
          "internalType": "address",
          "name": "from",
          "type": "address"
        },
        {
          "internalType": "address",
          "name": "to",
          "type": "address"
        },
        {
          "internalType": "uint256",
          "name": "id",
          "type": "uint256"
        },
        {
          "internalType": "uint256",
          "name": "amount",
          "type": "uint256"
        },
        {
          "internalType": "bytes",
          "name": "data",
          "type": "bytes"
        }
      ],
      "name": "safeTransferFrom",
      "outputs": [],
      "stateMutability": "nonpayable",
      "type": "function"
    },
    {
      "inputs": [
        {
          "internalType": "address",
          "name": "operator",
          "type": "address"
        },
        {
          "internalType": "bool",
          "name": "approved",
          "type": "bool"
        }
      ],
      "name": "setApprovalForAll",
      "outputs": [],
      "stateMutability": "nonpayable",
      "type": "function"
    },
    {
      "inputs": [
        {
          "internalType": "bytes4",
          "name": "interfaceId",
          "type": "bytes4"
        }
      ],
      "name": "supportsInterface",
      "outputs": [
        {
          "internalType": "bool",
          "name": "",
          "type": "bool"
        }
      ],
      "stateMutability": "view",
      "type": "function"
    },
    {
      "inputs": [
        {
          "internalType": "uint256",
          "name": "",
          "type": "uint256"
        }
      ],
      "name": "uri",
      "outputs": [
        {
          "internalType": "string",
          "name": "",
          "type": "string"
        }
      ],
      "stateMutability": "view",
      "type": "function"
    }
  ],
  "transactionHash": "0x391b706b3ec3511bc110bcd623c86b9f7923accb9d71a79cf7a71e0ce828265c",
  "args": [],
  "numDeployments": 6,
  "solcInputHash": "6387805ba08b2cf0f8304eac94043682",
  "bytecode": "0x608060405234801561001057600080fd5b50612fc1806100206000396000f3fe608060405234801561001057600080fd5b50600436106100a85760003560e01c80634571e3a6116100715780634571e3a6146101755780634e1273f4146101915780635b2bd79e146101c1578063a22cb465146101df578063e985e9c5146101fb578063f242432a1461022b576100a8565b8062fdd58e146100ad57806301ffc9a7146100dd5780630e89341c1461010d578063156e29f61461013d5780632eb2c2d614610159575b600080fd5b6100c760048036038101906100c29190611a98565b610247565b6040516100d49190611ae7565b60405180910390f35b6100f760048036038101906100f29190611b5a565b610311565b6040516101049190611ba2565b60405180910390f35b61012760048036038101906101229190611bbd565b6103f3565b6040516101349190611c83565b60405180910390f35b61015760048036038101906101529190611ca5565b610487565b005b610173600480360381019061016e9190611ef5565b61055d565b005b61018f600480360381019061018a9190612065565b6105fe565b005b6101ab60048036038101906101a69190612197565b6107d9565b6040516101b891906122cd565b60405180910390f35b6101c96108f2565b6040516101d69190611c83565b60405180910390f35b6101f960048036038101906101f4919061231b565b610980565b005b6102156004803603810190610210919061235b565b610996565b6040516102229190611ba2565b60405180910390f35b6102456004803603810190610240919061239b565b610a2a565b005b60008073ffffffffffffffffffffffffffffffffffffffff168373ffffffffffffffffffffffffffffffffffffffff1614156102b8576040517f08c379a00000000000000000000000000000000000000000000000000000000081526004016102af906124a4565b60405180910390fd5b6065600083815260200190815260200160002060008473ffffffffffffffffffffffffffffffffffffffff1673ffffffffffffffffffffffffffffffffffffffff16815260200190815260200160002054905092915050565b60007fd9b67a26000000000000000000000000000000000000000000000000000000007bffffffffffffffffffffffffffffffffffffffffffffffffffffffff1916827bffffffffffffffffffffffffffffffffffffffffffffffffffffffff191614806103dc57507f0e89341c000000000000000000000000000000000000000000000000000000007bffffffffffffffffffffffffffffffffffffffffffffffffffffffff1916827bffffffffffffffffffffffffffffffffffffffffffffffffffffffff1916145b806103ec57506103eb82610acb565b5b9050919050565b606060678054610402906124f3565b80601f016020809104026020016040519081016040528092919081815260200182805461042e906124f3565b801561047b5780601f106104505761010080835404028352916020019161047b565b820191906000526020600020905b81548152906001019060200180831161045e57829003601f168201915b50505050509050919050565b609860009054906101000a900473ffffffffffffffffffffffffffffffffffffffff1673ffffffffffffffffffffffffffffffffffffffff163373ffffffffffffffffffffffffffffffffffffffff161461053d57609860009054906101000a900473ffffffffffffffffffffffffffffffffffffffff16336040517f235db406000000000000000000000000000000000000000000000000000000008152600401610534929190612534565b60405180910390fd5b61055883838360405180602001604052806000815250610b35565b505050565b610565610ce7565b73ffffffffffffffffffffffffffffffffffffffff168573ffffffffffffffffffffffffffffffffffffffff1614806105ab57506105aa856105a5610ce7565b610996565b5b6105ea576040517f08c379a00000000000000000000000000000000000000000000000000000000081526004016105e1906125cf565b60405180910390fd5b6105f78585858585610cef565b5050505050565b60008060019054906101000a900460ff1615905080801561062f5750600160008054906101000a900460ff1660ff16105b8061065c575061063e30611014565b15801561065b5750600160008054906101000a900460ff1660ff16145b5b61069b576040517f08c379a000000000000000000000000000000000000000000000000000000000815260040161069290612661565b60405180910390fd5b60016000806101000a81548160ff021916908360ff16021790555080156106d8576001600060016101000a81548160ff0219169083151502179055505b83609760006101000a81548173ffffffffffffffffffffffffffffffffffffffff021916908373ffffffffffffffffffffffffffffffffffffffff16021790555082609860006101000a81548173ffffffffffffffffffffffffffffffffffffffff021916908373ffffffffffffffffffffffffffffffffffffffff160217905550816099908051906020019061077092919061194d565b5061077a82611037565b80156107d35760008060016101000a81548160ff0219169083151502179055507f7f26b83ff96e1f2b6a682f133852f6798a09c465da95921460cefb384740249860016040516107ca91906126d3565b60405180910390a15b50505050565b6060815183511461081f576040517f08c379a000000000000000000000000000000000000000000000000000000000815260040161081690612760565b60405180910390fd5b6000835167ffffffffffffffff81111561083c5761083b611cfd565b5b60405190808252806020026020018201604052801561086a5781602001602082028036833780820191505090505b50905060005b84518110156108e7576108b785828151811061088f5761088e612780565b5b60200260200101518583815181106108aa576108a9612780565b5b6020026020010151610247565b8282815181106108ca576108c9612780565b5b602002602001018181525050806108e0906127de565b9050610870565b508091505092915050565b609980546108ff906124f3565b80601f016020809104026020016040519081016040528092919081815260200182805461092b906124f3565b80156109785780601f1061094d57610100808354040283529160200191610978565b820191906000526020600020905b81548152906001019060200180831161095b57829003601f168201915b505050505081565b61099261098b610ce7565b8383611092565b5050565b6000606660008473ffffffffffffffffffffffffffffffffffffffff1673ffffffffffffffffffffffffffffffffffffffff16815260200190815260200160002060008373ffffffffffffffffffffffffffffffffffffffff1673ffffffffffffffffffffffffffffffffffffffff16815260200190815260200160002060009054906101000a900460ff16905092915050565b610a32610ce7565b73ffffffffffffffffffffffffffffffffffffffff168573ffffffffffffffffffffffffffffffffffffffff161480610a785750610a7785610a72610ce7565b610996565b5b610ab7576040517f08c379a0000000000000000000000000000000000000000000000000000000008152600401610aae906125cf565b60405180910390fd5b610ac485858585856111ff565b5050505050565b60007f01ffc9a7000000000000000000000000000000000000000000000000000000007bffffffffffffffffffffffffffffffffffffffffffffffffffffffff1916827bffffffffffffffffffffffffffffffffffffffffffffffffffffffff1916149050919050565b600073ffffffffffffffffffffffffffffffffffffffff168473ffffffffffffffffffffffffffffffffffffffff161415610ba5576040517f08c379a0000000000000000000000000000000000000000000000000000000008152600401610b9c90612899565b60405180910390fd5b6000610baf610ce7565b90506000610bbc8561149e565b90506000610bc98561149e565b9050610bda83600089858589611518565b846065600088815260200190815260200160002060008973ffffffffffffffffffffffffffffffffffffffff1673ffffffffffffffffffffffffffffffffffffffff1681526020019081526020016000206000828254610c3a91906128b9565b925050819055508673ffffffffffffffffffffffffffffffffffffffff16600073ffffffffffffffffffffffffffffffffffffffff168473ffffffffffffffffffffffffffffffffffffffff167fc3d58168c5ae7397731d063d5bbf3d657854427343f4c083240f7aacaa2d0f628989604051610cb892919061290f565b60405180910390a4610ccf83600089858589611520565b610cde83600089898989611528565b50505050505050565b600033905090565b8151835114610d33576040517f08c379a0000000000000000000000000000000000000000000000000000000008152600401610d2a906129aa565b60405180910390fd5b600073ffffffffffffffffffffffffffffffffffffffff168473ffffffffffffffffffffffffffffffffffffffff161415610da3576040517f08c379a0000000000000000000000000000000000000000000000000000000008152600401610d9a90612a3c565b60405180910390fd5b6000610dad610ce7565b9050610dbd818787878787611518565b60005b8451811015610f71576000858281518110610dde57610ddd612780565b5b602002602001015190506000858381518110610dfd57610dfc612780565b5b6020026020010151905060006065600084815260200190815260200160002060008b73ffffffffffffffffffffffffffffffffffffffff1673ffffffffffffffffffffffffffffffffffffffff16815260200190815260200160002054905081811015610e9f576040517f08c379a0000000000000000000000000000000000000000000000000000000008152600401610e9690612ace565b60405180910390fd5b8181036065600085815260200190815260200160002060008c73ffffffffffffffffffffffffffffffffffffffff1673ffffffffffffffffffffffffffffffffffffffff16815260200190815260200160002081905550816065600085815260200190815260200160002060008b73ffffffffffffffffffffffffffffffffffffffff1673ffffffffffffffffffffffffffffffffffffffff1681526020019081526020016000206000828254610f5691906128b9565b9250508190555050505080610f6a906127de565b9050610dc0565b508473ffffffffffffffffffffffffffffffffffffffff168673ffffffffffffffffffffffffffffffffffffffff168273ffffffffffffffffffffffffffffffffffffffff167f4a39dc06d4c0dbc64b70af90fd698a233a518aa5d07e595d983b8c0526c8f7fb8787604051610fe8929190612aee565b60405180910390a4610ffe818787878787611520565b61100c818787878787611700565b505050505050565b6000808273ffffffffffffffffffffffffffffffffffffffff163b119050919050565b600060019054906101000a900460ff16611086576040517f08c379a000000000000000000000000000000000000000000000000000000000815260040161107d90612b97565b60405180910390fd5b61108f816118d8565b50565b8173ffffffffffffffffffffffffffffffffffffffff168373ffffffffffffffffffffffffffffffffffffffff161415611101576040517f08c379a00000000000000000000000000000000000000000000000000000000081526004016110f890612c29565b60405180910390fd5b80606660008573ffffffffffffffffffffffffffffffffffffffff1673ffffffffffffffffffffffffffffffffffffffff16815260200190815260200160002060008473ffffffffffffffffffffffffffffffffffffffff1673ffffffffffffffffffffffffffffffffffffffff16815260200190815260200160002060006101000a81548160ff0219169083151502179055508173ffffffffffffffffffffffffffffffffffffffff168373ffffffffffffffffffffffffffffffffffffffff167f17307eab39ab6107e8899845ad3d59bd9653f200f220920489ca2b5937696c31836040516111f29190611ba2565b60405180910390a3505050565b600073ffffffffffffffffffffffffffffffffffffffff168473ffffffffffffffffffffffffffffffffffffffff16141561126f576040517f08c379a000000000000000000000000000000000000000000000000000000000815260040161126690612a3c565b60405180910390fd5b6000611279610ce7565b905060006112868561149e565b905060006112938561149e565b90506112a3838989858589611518565b60006065600088815260200190815260200160002060008a73ffffffffffffffffffffffffffffffffffffffff1673ffffffffffffffffffffffffffffffffffffffff1681526020019081526020016000205490508581101561133b576040517f08c379a000000000000000000000000000000000000000000000000000000000815260040161133290612ace565b60405180910390fd5b8581036065600089815260200190815260200160002060008b73ffffffffffffffffffffffffffffffffffffffff1673ffffffffffffffffffffffffffffffffffffffff16815260200190815260200160002081905550856065600089815260200190815260200160002060008a73ffffffffffffffffffffffffffffffffffffffff1673ffffffffffffffffffffffffffffffffffffffff16815260200190815260200160002060008282546113f291906128b9565b925050819055508773ffffffffffffffffffffffffffffffffffffffff168973ffffffffffffffffffffffffffffffffffffffff168573ffffffffffffffffffffffffffffffffffffffff167fc3d58168c5ae7397731d063d5bbf3d657854427343f4c083240f7aacaa2d0f628a8a60405161146f92919061290f565b60405180910390a4611485848a8a86868a611520565b611493848a8a8a8a8a611528565b505050505050505050565b60606000600167ffffffffffffffff8111156114bd576114bc611cfd565b5b6040519080825280602002602001820160405280156114eb5781602001602082028036833780820191505090505b509050828160008151811061150357611502612780565b5b60200260200101818152505080915050919050565b505050505050565b505050505050565b6115478473ffffffffffffffffffffffffffffffffffffffff16611014565b156116f8578373ffffffffffffffffffffffffffffffffffffffff1663f23a6e6187878686866040518663ffffffff1660e01b815260040161158d959493929190612c9e565b6020604051808303816000875af19250505080156115c957506040513d601f19601f820116820180604052508101906115c69190612d0d565b60015b61166f576115d5612d47565b806308c379a0141561163257506115ea612d69565b806115f55750611634565b806040517f08c379a00000000000000000000000000000000000000000000000000000000081526004016116299190611c83565b60405180910390fd5b505b6040517f08c379a000000000000000000000000000000000000000000000000000000000815260040161166690612e71565b60405180910390fd5b63f23a6e6160e01b7bffffffffffffffffffffffffffffffffffffffffffffffffffffffff1916817bffffffffffffffffffffffffffffffffffffffffffffffffffffffff1916146116f6576040517f08c379a00000000000000000000000000000000000000000000000000000000081526004016116ed90612f03565b60405180910390fd5b505b505050505050565b61171f8473ffffffffffffffffffffffffffffffffffffffff16611014565b156118d0578373ffffffffffffffffffffffffffffffffffffffff1663bc197c8187878686866040518663ffffffff1660e01b8152600401611765959493929190612f23565b6020604051808303816000875af19250505080156117a157506040513d601f19601f8201168201806040525081019061179e9190612d0d565b60015b611847576117ad612d47565b806308c379a0141561180a57506117c2612d69565b806117cd575061180c565b806040517f08c379a00000000000000000000000000000000000000000000000000000000081526004016118019190611c83565b60405180910390fd5b505b6040517f08c379a000000000000000000000000000000000000000000000000000000000815260040161183e90612e71565b60405180910390fd5b63bc197c8160e01b7bffffffffffffffffffffffffffffffffffffffffffffffffffffffff1916817bffffffffffffffffffffffffffffffffffffffffffffffffffffffff1916146118ce576040517f08c379a00000000000000000000000000000000000000000000000000000000081526004016118c590612f03565b60405180910390fd5b505b505050505050565b600060019054906101000a900460ff16611927576040517f08c379a000000000000000000000000000000000000000000000000000000000815260040161191e90612b97565b60405180910390fd5b61193081611933565b50565b806067908051906020019061194992919061194d565b5050565b828054611959906124f3565b90600052602060002090601f01602090048101928261197b57600085556119c2565b82601f1061199457805160ff19168380011785556119c2565b828001600101855582156119c2579182015b828111156119c15782518255916020019190600101906119a6565b5b5090506119cf91906119d3565b5090565b5b808211156119ec5760008160009055506001016119d4565b5090565b6000604051905090565b600080fd5b600080fd5b600073ffffffffffffffffffffffffffffffffffffffff82169050919050565b6000611a2f82611a04565b9050919050565b611a3f81611a24565b8114611a4a57600080fd5b50565b600081359050611a5c81611a36565b92915050565b6000819050919050565b611a7581611a62565b8114611a8057600080fd5b50565b600081359050611a9281611a6c565b92915050565b60008060408385031215611aaf57611aae6119fa565b5b6000611abd85828601611a4d565b9250506020611ace85828601611a83565b9150509250929050565b611ae181611a62565b82525050565b6000602082019050611afc6000830184611ad8565b92915050565b60007fffffffff0000000000000000000000000000000000000000000000000000000082169050919050565b611b3781611b02565b8114611b4257600080fd5b50565b600081359050611b5481611b2e565b92915050565b600060208284031215611b7057611b6f6119fa565b5b6000611b7e84828501611b45565b91505092915050565b60008115159050919050565b611b9c81611b87565b82525050565b6000602082019050611bb76000830184611b93565b92915050565b600060208284031215611bd357611bd26119fa565b5b6000611be184828501611a83565b91505092915050565b600081519050919050565b600082825260208201905092915050565b60005b83811015611c24578082015181840152602081019050611c09565b83811115611c33576000848401525b50505050565b6000601f19601f8301169050919050565b6000611c5582611bea565b611c5f8185611bf5565b9350611c6f818560208601611c06565b611c7881611c39565b840191505092915050565b60006020820190508181036000830152611c9d8184611c4a565b905092915050565b600080600060608486031215611cbe57611cbd6119fa565b5b6000611ccc86828701611a4d565b9350506020611cdd86828701611a83565b9250506040611cee86828701611a83565b9150509250925092565b600080fd5b7f4e487b7100000000000000000000000000000000000000000000000000000000600052604160045260246000fd5b611d3582611c39565b810181811067ffffffffffffffff82111715611d5457611d53611cfd565b5b80604052505050565b6000611d676119f0565b9050611d738282611d2c565b919050565b600067ffffffffffffffff821115611d9357611d92611cfd565b5b602082029050602081019050919050565b600080fd5b6000611dbc611db784611d78565b611d5d565b90508083825260208201905060208402830185811115611ddf57611dde611da4565b5b835b81811015611e085780611df48882611a83565b845260208401935050602081019050611de1565b5050509392505050565b600082601f830112611e2757611e26611cf8565b5b8135611e37848260208601611da9565b91505092915050565b600080fd5b600067ffffffffffffffff821115611e6057611e5f611cfd565b5b611e6982611c39565b9050602081019050919050565b82818337600083830152505050565b6000611e98611e9384611e45565b611d5d565b905082815260208101848484011115611eb457611eb3611e40565b5b611ebf848285611e76565b509392505050565b600082601f830112611edc57611edb611cf8565b5b8135611eec848260208601611e85565b91505092915050565b600080600080600060a08688031215611f1157611f106119fa565b5b6000611f1f88828901611a4d565b9550506020611f3088828901611a4d565b945050604086013567ffffffffffffffff811115611f5157611f506119ff565b5b611f5d88828901611e12565b935050606086013567ffffffffffffffff811115611f7e57611f7d6119ff565b5b611f8a88828901611e12565b925050608086013567ffffffffffffffff811115611fab57611faa6119ff565b5b611fb788828901611ec7565b9150509295509295909350565b600067ffffffffffffffff821115611fdf57611fde611cfd565b5b611fe882611c39565b9050602081019050919050565b600061200861200384611fc4565b611d5d565b90508281526020810184848401111561202457612023611e40565b5b61202f848285611e76565b509392505050565b600082601f83011261204c5761204b611cf8565b5b813561205c848260208601611ff5565b91505092915050565b60008060006060848603121561207e5761207d6119fa565b5b600061208c86828701611a4d565b935050602061209d86828701611a4d565b925050604084013567ffffffffffffffff8111156120be576120bd6119ff565b5b6120ca86828701612037565b9150509250925092565b600067ffffffffffffffff8211156120ef576120ee611cfd565b5b602082029050602081019050919050565b600061211361210e846120d4565b611d5d565b9050808382526020820190506020840283018581111561213657612135611da4565b5b835b8181101561215f578061214b8882611a4d565b845260208401935050602081019050612138565b5050509392505050565b600082601f83011261217e5761217d611cf8565b5b813561218e848260208601612100565b91505092915050565b600080604083850312156121ae576121ad6119fa565b5b600083013567ffffffffffffffff8111156121cc576121cb6119ff565b5b6121d885828601612169565b925050602083013567ffffffffffffffff8111156121f9576121f86119ff565b5b61220585828601611e12565b9150509250929050565b600081519050919050565b600082825260208201905092915050565b6000819050602082019050919050565b61224481611a62565b82525050565b6000612256838361223b565b60208301905092915050565b6000602082019050919050565b600061227a8261220f565b612284818561221a565b935061228f8361222b565b8060005b838110156122c05781516122a7888261224a565b97506122b283612262565b925050600181019050612293565b5085935050505092915050565b600060208201905081810360008301526122e7818461226f565b905092915050565b6122f881611b87565b811461230357600080fd5b50565b600081359050612315816122ef565b92915050565b60008060408385031215612332576123316119fa565b5b600061234085828601611a4d565b925050602061235185828601612306565b9150509250929050565b60008060408385031215612372576123716119fa565b5b600061238085828601611a4d565b925050602061239185828601611a4d565b9150509250929050565b600080600080600060a086880312156123b7576123b66119fa565b5b60006123c588828901611a4d565b95505060206123d688828901611a4d565b94505060406123e788828901611a83565b93505060606123f888828901611a83565b925050608086013567ffffffffffffffff811115612419576124186119ff565b5b61242588828901611ec7565b9150509295509295909350565b7f455243313135353a2061646472657373207a65726f206973206e6f742061207660008201527f616c6964206f776e657200000000000000000000000000000000000000000000602082015250565b600061248e602a83611bf5565b915061249982612432565b604082019050919050565b600060208201905081810360008301526124bd81612481565b9050919050565b7f4e487b7100000000000000000000000000000000000000000000000000000000600052602260045260246000fd5b6000600282049050600182168061250b57607f821691505b6020821081141561251f5761251e6124c4565b5b50919050565b61252e81611a24565b82525050565b60006040820190506125496000830185612525565b6125566020830184612525565b9392505050565b7f455243313135353a2063616c6c6572206973206e6f7420746f6b656e206f776e60008201527f6572206e6f7220617070726f7665640000000000000000000000000000000000602082015250565b60006125b9602f83611bf5565b91506125c48261255d565b604082019050919050565b600060208201905081810360008301526125e8816125ac565b9050919050565b7f496e697469616c697a61626c653a20636f6e747261637420697320616c72656160008201527f647920696e697469616c697a6564000000000000000000000000000000000000602082015250565b600061264b602e83611bf5565b9150612656826125ef565b604082019050919050565b6000602082019050818103600083015261267a8161263e565b9050919050565b6000819050919050565b600060ff82169050919050565b6000819050919050565b60006126bd6126b86126b384612681565b612698565b61268b565b9050919050565b6126cd816126a2565b82525050565b60006020820190506126e860008301846126c4565b92915050565b7f455243313135353a206163636f756e747320616e6420696473206c656e67746860008201527f206d69736d617463680000000000000000000000000000000000000000000000602082015250565b600061274a602983611bf5565b9150612755826126ee565b604082019050919050565b600060208201905081810360008301526127798161273d565b9050919050565b7f4e487b7100000000000000000000000000000000000000000000000000000000600052603260045260246000fd5b7f4e487b7100000000000000000000000000000000000000000000000000000000600052601160045260246000fd5b60006127e982611a62565b91507fffffffffffffffffffffffffffffffffffffffffffffffffffffffffffffffff82141561281c5761281b6127af565b5b600182019050919050565b7f455243313135353a206d696e7420746f20746865207a65726f2061646472657360008201527f7300000000000000000000000000000000000000000000000000000000000000602082015250565b6000612883602183611bf5565b915061288e82612827565b604082019050919050565b600060208201905081810360008301526128b281612876565b9050919050565b60006128c482611a62565b91506128cf83611a62565b9250827fffffffffffffffffffffffffffffffffffffffffffffffffffffffffffffffff03821115612904576129036127af565b5b828201905092915050565b60006040820190506129246000830185611ad8565b6129316020830184611ad8565b9392505050565b7f455243313135353a2069647320616e6420616d6f756e7473206c656e6774682060008201527f6d69736d61746368000000000000000000000000000000000000000000000000602082015250565b6000612994602883611bf5565b915061299f82612938565b604082019050919050565b600060208201905081810360008301526129c381612987565b9050919050565b7f455243313135353a207472616e7366657220746f20746865207a65726f20616460008201527f6472657373000000000000000000000000000000000000000000000000000000602082015250565b6000612a26602583611bf5565b9150612a31826129ca565b604082019050919050565b60006020820190508181036000830152612a5581612a19565b9050919050565b7f455243313135353a20696e73756666696369656e742062616c616e636520666f60008201527f72207472616e7366657200000000000000000000000000000000000000000000602082015250565b6000612ab8602a83611bf5565b9150612ac382612a5c565b604082019050919050565b60006020820190508181036000830152612ae781612aab565b9050919050565b60006040820190508181036000830152612b08818561226f565b90508181036020830152612b1c818461226f565b90509392505050565b7f496e697469616c697a61626c653a20636f6e7472616374206973206e6f74206960008201527f6e697469616c697a696e67000000000000000000000000000000000000000000602082015250565b6000612b81602b83611bf5565b9150612b8c82612b25565b604082019050919050565b60006020820190508181036000830152612bb081612b74565b9050919050565b7f455243313135353a2073657474696e6720617070726f76616c2073746174757360008201527f20666f722073656c660000000000000000000000000000000000000000000000602082015250565b6000612c13602983611bf5565b9150612c1e82612bb7565b604082019050919050565b60006020820190508181036000830152612c4281612c06565b9050919050565b600081519050919050565b600082825260208201905092915050565b6000612c7082612c49565b612c7a8185612c54565b9350612c8a818560208601611c06565b612c9381611c39565b840191505092915050565b600060a082019050612cb36000830188612525565b612cc06020830187612525565b612ccd6040830186611ad8565b612cda6060830185611ad8565b8181036080830152612cec8184612c65565b90509695505050505050565b600081519050612d0781611b2e565b92915050565b600060208284031215612d2357612d226119fa565b5b6000612d3184828501612cf8565b91505092915050565b60008160e01c9050919050565b600060033d1115612d665760046000803e612d63600051612d3a565b90505b90565b600060443d1015612d7957612dfc565b612d816119f0565b60043d036004823e80513d602482011167ffffffffffffffff82111715612da9575050612dfc565b808201805167ffffffffffffffff811115612dc75750505050612dfc565b80602083010160043d038501811115612de4575050505050612dfc565b612df382602001850186611d2c565b82955050505050505b90565b7f455243313135353a207472616e7366657220746f206e6f6e204552433131353560008201527f526563656976657220696d706c656d656e746572000000000000000000000000602082015250565b6000612e5b603483611bf5565b9150612e6682612dff565b604082019050919050565b60006020820190508181036000830152612e8a81612e4e565b9050919050565b7f455243313135353a204552433131353552656365697665722072656a6563746560008201527f6420746f6b656e73000000000000000000000000000000000000000000000000602082015250565b6000612eed602883611bf5565b9150612ef882612e91565b604082019050919050565b60006020820190508181036000830152612f1c81612ee0565b9050919050565b600060a082019050612f386000830188612525565b612f456020830187612525565b8181036040830152612f57818661226f565b90508181036060830152612f6b818561226f565b90508181036080830152612f7f8184612c65565b9050969550505050505056fea264697066735822122064c6544bb858d4bc140cb63ec1cbe26d77c9eaa12b2810d0deac13d1fa64d40964736f6c634300080a0033",
  "devdoc": {
    "kind": "dev",
    "methods": {
      "balanceOf(address,uint256)": {
        "details": "See {IERC1155-balanceOf}. Requirements: - `account` cannot be the zero address."
      },
      "balanceOfBatch(address[],uint256[])": {
        "details": "See {IERC1155-balanceOfBatch}. Requirements: - `accounts` and `ids` must have the same length."
      },
      "isApprovedForAll(address,address)": {
        "details": "See {IERC1155-isApprovedForAll}."
      },
      "safeBatchTransferFrom(address,address,uint256[],uint256[],bytes)": {
        "details": "See {IERC1155-safeBatchTransferFrom}."
      },
      "safeTransferFrom(address,address,uint256,uint256,bytes)": {
        "details": "See {IERC1155-safeTransferFrom}."
      },
      "setApprovalForAll(address,bool)": {
        "details": "See {IERC1155-setApprovalForAll}."
      },
      "supportsInterface(bytes4)": {
        "details": "See {IERC165-supportsInterface}."
      },
      "uri(uint256)": {
        "details": "See {IERC1155MetadataURI-uri}. This implementation returns the same URI for *all* token types. It relies on the token type ID substitution mechanism https://eips.ethereum.org/EIPS/eip-1155#metadata[defined in the EIP]. Clients calling this function must replace the `\\{id\\}` substring with the actual token type ID."
      }
    },
    "version": 1
  },
  "userdoc": {
    "kind": "user",
    "methods": {},
    "version": 1
  },
  "storageLayout": {
    "storage": [
      {
        "astId": 6,
        "contract": "contracts/Collection.sol:Collection",
        "label": "_initialized",
        "offset": 0,
        "slot": "0",
        "type": "t_uint8"
      },
      {
        "astId": 9,
        "contract": "contracts/Collection.sol:Collection",
        "label": "_initializing",
        "offset": 1,
        "slot": "0",
        "type": "t_bool"
      },
      {
        "astId": 1857,
        "contract": "contracts/Collection.sol:Collection",
        "label": "__gap",
        "offset": 0,
        "slot": "1",
        "type": "t_array(t_uint256)50_storage"
      },
      {
        "astId": 1901,
        "contract": "contracts/Collection.sol:Collection",
        "label": "__gap",
        "offset": 0,
        "slot": "51",
        "type": "t_array(t_uint256)50_storage"
      },
      {
        "astId": 179,
        "contract": "contracts/Collection.sol:Collection",
        "label": "_balances",
        "offset": 0,
        "slot": "101",
        "type": "t_mapping(t_uint256,t_mapping(t_address,t_uint256))"
      },
      {
        "astId": 185,
        "contract": "contracts/Collection.sol:Collection",
        "label": "_operatorApprovals",
        "offset": 0,
        "slot": "102",
        "type": "t_mapping(t_address,t_mapping(t_address,t_bool))"
      },
      {
        "astId": 187,
        "contract": "contracts/Collection.sol:Collection",
        "label": "_uri",
        "offset": 0,
        "slot": "103",
        "type": "t_string_storage"
      },
      {
        "astId": 1394,
        "contract": "contracts/Collection.sol:Collection",
        "label": "__gap",
        "offset": 0,
        "slot": "104",
        "type": "t_array(t_uint256)47_storage"
      },
      {
        "astId": 1929,
        "contract": "contracts/Collection.sol:Collection",
        "label": "owner",
        "offset": 0,
        "slot": "151",
        "type": "t_address"
      },
      {
        "astId": 1931,
        "contract": "contracts/Collection.sol:Collection",
        "label": "communityAddress",
        "offset": 0,
        "slot": "152",
        "type": "t_address"
      },
      {
        "astId": 1933,
        "contract": "contracts/Collection.sol:Collection",
        "label": "baseMetadataURI",
        "offset": 0,
        "slot": "153",
        "type": "t_string_storage"
      }
    ],
    "types": {
      "t_address": {
        "encoding": "inplace",
        "label": "address",
        "numberOfBytes": "20"
      },
      "t_array(t_uint256)47_storage": {
        "base": "t_uint256",
        "encoding": "inplace",
        "label": "uint256[47]",
        "numberOfBytes": "1504"
      },
      "t_array(t_uint256)50_storage": {
        "base": "t_uint256",
        "encoding": "inplace",
        "label": "uint256[50]",
        "numberOfBytes": "1600"
      },
      "t_bool": {
        "encoding": "inplace",
        "label": "bool",
        "numberOfBytes": "1"
      },
      "t_mapping(t_address,t_bool)": {
        "encoding": "mapping",
        "key": "t_address",
        "label": "mapping(address => bool)",
        "numberOfBytes": "32",
        "value": "t_bool"
      },
      "t_mapping(t_address,t_mapping(t_address,t_bool))": {
        "encoding": "mapping",
        "key": "t_address",
        "label": "mapping(address => mapping(address => bool))",
        "numberOfBytes": "32",
        "value": "t_mapping(t_address,t_bool)"
      },
      "t_mapping(t_address,t_uint256)": {
        "encoding": "mapping",
        "key": "t_address",
        "label": "mapping(address => uint256)",
        "numberOfBytes": "32",
        "value": "t_uint256"
      },
      "t_mapping(t_uint256,t_mapping(t_address,t_uint256))": {
        "encoding": "mapping",
        "key": "t_uint256",
        "label": "mapping(uint256 => mapping(address => uint256))",
        "numberOfBytes": "32",
        "value": "t_mapping(t_address,t_uint256)"
      },
      "t_string_storage": {
        "encoding": "bytes",
        "label": "string",
        "numberOfBytes": "32"
      },
      "t_uint256": {
        "encoding": "inplace",
        "label": "uint256",
        "numberOfBytes": "32"
      },
      "t_uint8": {
        "encoding": "inplace",
        "label": "uint8",
        "numberOfBytes": "1"
      }
    }
  }
}