{
  "address": "0xBB4a18773C5F036Ad821059dd3574320934b567F",
  "abi": [
    {
      "inputs": [
        {
          "internalType": "address",
          "name": "_implementationCommunity",
          "type": "address"
        },
        {
          "internalType": "address",
          "name": "_implementationCollection",
          "type": "address"
        }
      ],
      "stateMutability": "nonpayable",
      "type": "constructor"
    },
    {
      "anonymous": false,
      "inputs": [
        {
          "indexed": false,
          "internalType": "address",
          "name": "_clone",
          "type": "address"
        }
      ],
      "name": "NewClone",
      "type": "event"
    },
    {
      "anonymous": false,
      "inputs": [
        {
          "indexed": true,
          "internalType": "address",
          "name": "previousOwner",
          "type": "address"
        },
        {
          "indexed": true,
          "internalType": "address",
          "name": "newOwner",
          "type": "address"
        }
      ],
      "name": "OwnershipTransferred",
      "type": "event"
    },
    {
      "inputs": [
        {
          "internalType": "uint256",
          "name": "",
          "type": "uint256"
        }
      ],
      "name": "allClones",
      "outputs": [
        {
          "internalType": "address",
          "name": "",
          "type": "address"
        }
      ],
      "stateMutability": "view",
      "type": "function"
    },
    {
      "inputs": [],
      "name": "createNewCommunity",
      "outputs": [
        {
          "internalType": "address",
          "name": "instance",
          "type": "address"
        }
      ],
      "stateMutability": "nonpayable",
      "type": "function"
    },
    {
      "inputs": [],
      "name": "implementationCollection",
      "outputs": [
        {
          "internalType": "address",
          "name": "",
          "type": "address"
        }
      ],
      "stateMutability": "view",
      "type": "function"
    },
    {
      "inputs": [],
      "name": "implementationCommunity",
      "outputs": [
        {
          "internalType": "address",
          "name": "",
          "type": "address"
        }
      ],
      "stateMutability": "view",
      "type": "function"
    },
    {
      "inputs": [],
      "name": "owner",
      "outputs": [
        {
          "internalType": "address",
          "name": "",
          "type": "address"
        }
      ],
      "stateMutability": "view",
      "type": "function"
    },
    {
      "inputs": [],
      "name": "renounceOwnership",
      "outputs": [],
      "stateMutability": "nonpayable",
      "type": "function"
    },
    {
      "inputs": [
        {
          "internalType": "address",
          "name": "newOwner",
          "type": "address"
        }
      ],
      "name": "transferOwnership",
      "outputs": [],
      "stateMutability": "nonpayable",
      "type": "function"
    }
  ],
  "transactionHash": "0x5776fb6c7bb4d2a36f03c3d589ba884ab7bcc6531c811ba4fb4edd2ed0dcbea2",
  "args": [
    "0xc72DF9762e0e71015bC81f6864F3cd50C2e6C33c",
    "0xa2af19E78dA3E5910Ed6253344F022a02544544f"
  ],
  "numDeployments": 3,
  "solcInputHash": "856a7bc07fd388e4475a323ab2022ad8",
  "bytecode": "0x608060405234801561001057600080fd5b50604051610b37380380610b3783398181016040528101906100329190610206565b61004e6100436100d760201b60201c565b6100df60201b60201c565b81600160006101000a81548173ffffffffffffffffffffffffffffffffffffffff021916908373ffffffffffffffffffffffffffffffffffffffff16021790555080600260006101000a81548173ffffffffffffffffffffffffffffffffffffffff021916908373ffffffffffffffffffffffffffffffffffffffff1602179055505050610246565b600033905090565b60008060009054906101000a900473ffffffffffffffffffffffffffffffffffffffff169050816000806101000a81548173ffffffffffffffffffffffffffffffffffffffff021916908373ffffffffffffffffffffffffffffffffffffffff1602179055508173ffffffffffffffffffffffffffffffffffffffff168173ffffffffffffffffffffffffffffffffffffffff167f8be0079c531659141344cd1fd0a4f28419497f9722a3daafe3b4186f6b6457e060405160405180910390a35050565b600080fd5b600073ffffffffffffffffffffffffffffffffffffffff82169050919050565b60006101d3826101a8565b9050919050565b6101e3816101c8565b81146101ee57600080fd5b50565b600081519050610200816101da565b92915050565b6000806040838503121561021d5761021c6101a3565b5b600061022b858286016101f1565b925050602061023c858286016101f1565b9150509250929050565b6108e2806102556000396000f3fe608060405234801561001057600080fd5b506004361061007d5760003560e01c8063bf6471051161005b578063bf647105146100c8578063d7741cad146100e6578063ea20c45914610116578063f2fde38b146101345761007d565b806369bf27a314610082578063715018a6146100a05780638da5cb5b146100aa575b600080fd5b61008a610150565b6040516100979190610655565b60405180910390f35b6100a8610176565b005b6100b261018a565b6040516100bf9190610655565b60405180910390f35b6100d06101b3565b6040516100dd9190610655565b60405180910390f35b61010060048036038101906100fb91906106ab565b6101d9565b60405161010d9190610655565b60405180910390f35b61011e610218565b60405161012b9190610655565b60405180910390f35b61014e60048036038101906101499190610704565b610371565b005b600260009054906101000a900473ffffffffffffffffffffffffffffffffffffffff1681565b61017e6103f5565b6101886000610473565b565b60008060009054906101000a900473ffffffffffffffffffffffffffffffffffffffff16905090565b600160009054906101000a900473ffffffffffffffffffffffffffffffffffffffff1681565b600381815481106101e957600080fd5b906000526020600020016000915054906101000a900473ffffffffffffffffffffffffffffffffffffffff1681565b6000610245600160009054906101000a900473ffffffffffffffffffffffffffffffffffffffff16610537565b90508073ffffffffffffffffffffffffffffffffffffffff1663c4d66de8600260009054906101000a900473ffffffffffffffffffffffffffffffffffffffff166040518263ffffffff1660e01b81526004016102a29190610655565b600060405180830381600087803b1580156102bc57600080fd5b505af11580156102d0573d6000803e3d6000fd5b505050506003819080600181540180825580915050600190039060005260206000200160009091909190916101000a81548173ffffffffffffffffffffffffffffffffffffffff021916908373ffffffffffffffffffffffffffffffffffffffff1602179055507fcc1e9c890bc4f4943c457abb8d17f97703b9f7144e1f4a69e50c6e4988ef38b7816040516103669190610655565b60405180910390a190565b6103796103f5565b600073ffffffffffffffffffffffffffffffffffffffff168173ffffffffffffffffffffffffffffffffffffffff1614156103e9576040517f08c379a00000000000000000000000000000000000000000000000000000000081526004016103e0906107b4565b60405180910390fd5b6103f281610473565b50565b6103fd61060c565b73ffffffffffffffffffffffffffffffffffffffff1661041b61018a565b73ffffffffffffffffffffffffffffffffffffffff1614610471576040517f08c379a000000000000000000000000000000000000000000000000000000000815260040161046890610820565b60405180910390fd5b565b60008060009054906101000a900473ffffffffffffffffffffffffffffffffffffffff169050816000806101000a81548173ffffffffffffffffffffffffffffffffffffffff021916908373ffffffffffffffffffffffffffffffffffffffff1602179055508173ffffffffffffffffffffffffffffffffffffffff168173ffffffffffffffffffffffffffffffffffffffff167f8be0079c531659141344cd1fd0a4f28419497f9722a3daafe3b4186f6b6457e060405160405180910390a35050565b60006040517f3d602d80600a3d3981f3363d3d373d3d3d363d7300000000000000000000000081528260601b60148201527f5af43d82803e903d91602b57fd5bf3000000000000000000000000000000000060288201526037816000f0915050600073ffffffffffffffffffffffffffffffffffffffff168173ffffffffffffffffffffffffffffffffffffffff161415610607576040517f08c379a00000000000000000000000000000000000000000000000000000000081526004016105fe9061088c565b60405180910390fd5b919050565b600033905090565b600073ffffffffffffffffffffffffffffffffffffffff82169050919050565b600061063f82610614565b9050919050565b61064f81610634565b82525050565b600060208201905061066a6000830184610646565b92915050565b600080fd5b6000819050919050565b61068881610675565b811461069357600080fd5b50565b6000813590506106a58161067f565b92915050565b6000602082840312156106c1576106c0610670565b5b60006106cf84828501610696565b91505092915050565b6106e181610634565b81146106ec57600080fd5b50565b6000813590506106fe816106d8565b92915050565b60006020828403121561071a57610719610670565b5b6000610728848285016106ef565b91505092915050565b600082825260208201905092915050565b7f4f776e61626c653a206e6577206f776e657220697320746865207a65726f206160008201527f6464726573730000000000000000000000000000000000000000000000000000602082015250565b600061079e602683610731565b91506107a982610742565b604082019050919050565b600060208201905081810360008301526107cd81610791565b9050919050565b7f4f776e61626c653a2063616c6c6572206973206e6f7420746865206f776e6572600082015250565b600061080a602083610731565b9150610815826107d4565b602082019050919050565b60006020820190508181036000830152610839816107fd565b9050919050565b7f455243313136373a20637265617465206661696c656400000000000000000000600082015250565b6000610876601683610731565b915061088182610840565b602082019050919050565b600060208201905081810360008301526108a581610869565b905091905056fea26469706673582212201c89b2a2e8af0c6a199408d5f96f6d7b5f0626ab38f272f7aa795ef1a60d262b64736f6c634300080a0033",
  "devdoc": {
    "kind": "dev",
    "methods": {
      "owner()": {
        "details": "Returns the address of the current owner."
      },
      "renounceOwnership()": {
        "details": "Leaves the contract without owner. It will not be possible to call `onlyOwner` functions anymore. Can only be called by the current owner. NOTE: Renouncing ownership will leave the contract without an owner, thereby removing any functionality that is only available to the owner."
      },
      "transferOwnership(address)": {
        "details": "Transfers ownership of the contract to a new account (`newOwner`). Can only be called by the current owner."
      }
    },
    "version": 1
  },
  "userdoc": {
    "kind": "user",
    "methods": {},
    "version": 1
  },
  "storageLayout": {
    "storage": [
      {
        "astId": 1922,
        "contract": "contracts/CommunityProxyFactory.sol:CommunityProxyFactory",
        "label": "_owner",
        "offset": 0,
        "slot": "0",
        "type": "t_address"
      },
      {
        "astId": 2503,
        "contract": "contracts/CommunityProxyFactory.sol:CommunityProxyFactory",
        "label": "implementationCommunity",
        "offset": 0,
        "slot": "1",
        "type": "t_address"
      },
      {
        "astId": 2505,
        "contract": "contracts/CommunityProxyFactory.sol:CommunityProxyFactory",
        "label": "implementationCollection",
        "offset": 0,
        "slot": "2",
        "type": "t_address"
      },
      {
        "astId": 2508,
        "contract": "contracts/CommunityProxyFactory.sol:CommunityProxyFactory",
        "label": "allClones",
        "offset": 0,
        "slot": "3",
        "type": "t_array(t_address)dyn_storage"
      }
    ],
    "types": {
      "t_address": {
        "encoding": "inplace",
        "label": "address",
        "numberOfBytes": "20"
      },
      "t_array(t_address)dyn_storage": {
        "base": "t_address",
        "encoding": "dynamic_array",
        "label": "address[]",
        "numberOfBytes": "32"
      }
    }
  }
}