{
  "address": "0xF3a1500D399cD3284130c046283eF85F9df666C2",
  "abi": [
    {
      "inputs": [
        {
          "internalType": "address",
          "name": "_collectionImplemenation",
          "type": "address"
        }
      ],
      "stateMutability": "nonpayable",
      "type": "constructor"
    },
    {
      "inputs": [],
      "name": "Community__NotEnoughSupply",
      "type": "error"
    },
    {
      "inputs": [
        {
          "internalType": "uint256",
          "name": "idsLength",
          "type": "uint256"
        },
        {
          "internalType": "uint256",
          "name": "suppliesLength",
          "type": "uint256"
        }
      ],
      "name": "Community__TokenIdsDoNotMatchTokenSupplies",
      "type": "error"
    },
    {
      "anonymous": false,
      "inputs": [
        {
          "indexed": true,
          "internalType": "address",
          "name": "collectionAddress",
          "type": "address"
        },
        {
          "indexed": true,
          "internalType": "address",
          "name": "communityAddress",
          "type": "address"
        },
        {
          "indexed": true,
          "internalType": "string",
          "name": "baseMetaDataURI",
          "type": "string"
        },
        {
          "components": [
            {
              "internalType": "address",
              "name": "communityAddress",
              "type": "address"
            },
            {
              "internalType": "string",
              "name": "baseMetadataURI",
              "type": "string"
            },
            {
              "internalType": "uint256[]",
              "name": "supplies",
              "type": "uint256[]"
            }
          ],
          "indexed": false,
          "internalType": "struct Community.Collection",
          "name": "collection",
          "type": "tuple"
        }
      ],
      "name": "CollectionCreated",
      "type": "event"
    },
    {
      "anonymous": false,
      "inputs": [
        {
          "indexed": true,
          "internalType": "address",
          "name": "collectionAddress",
          "type": "address"
        },
        {
          "indexed": true,
          "internalType": "address[]",
          "name": "to",
          "type": "address[]"
        },
        {
          "indexed": true,
          "internalType": "uint256",
          "name": "tokenId",
          "type": "uint256"
        }
      ],
      "name": "NewTokenAirdropped",
      "type": "event"
    },
    {
      "anonymous": false,
      "inputs": [
        {
          "indexed": true,
          "internalType": "address",
          "name": "previousOwner",
          "type": "address"
        },
        {
          "indexed": true,
          "internalType": "address",
          "name": "newOwner",
          "type": "address"
        }
      ],
      "name": "OwnershipTransferred",
      "type": "event"
    },
    {
      "anonymous": false,
      "inputs": [
        {
          "indexed": true,
          "internalType": "address",
          "name": "collectionAddress",
          "type": "address"
        },
        {
          "indexed": true,
          "internalType": "address",
          "name": "to",
          "type": "address"
        },
        {
          "indexed": true,
          "internalType": "uint256",
          "name": "tokenId",
          "type": "uint256"
        },
        {
          "indexed": false,
          "internalType": "uint256",
          "name": "amount",
          "type": "uint256"
        }
      ],
      "name": "TokenMinted",
      "type": "event"
    },
    {
      "inputs": [
        {
          "internalType": "address",
          "name": "_collectionAddress",
          "type": "address"
        },
        {
          "internalType": "uint256",
          "name": "_tokenId",
          "type": "uint256"
        },
        {
          "internalType": "address[]",
          "name": "_to",
          "type": "address[]"
        }
      ],
      "name": "airdropNewTokens",
      "outputs": [],
      "stateMutability": "nonpayable",
      "type": "function"
    },
    {
      "inputs": [
        {
          "internalType": "string",
          "name": "_baseMetadataURI",
          "type": "string"
        },
        {
          "internalType": "uint256[]",
          "name": "_tokenIds",
          "type": "uint256[]"
        },
        {
          "internalType": "uint256[]",
          "name": "_initialSupplies",
          "type": "uint256[]"
        }
      ],
      "name": "createCollection",
      "outputs": [],
      "stateMutability": "nonpayable",
      "type": "function"
    },
    {
      "inputs": [
        {
          "internalType": "address",
          "name": "_collectionAddress",
          "type": "address"
        },
        {
          "internalType": "uint256",
          "name": "_tokenId",
          "type": "uint256"
        },
        {
          "internalType": "uint256",
          "name": "_amount",
          "type": "uint256"
        }
      ],
      "name": "mintToken",
      "outputs": [],
      "stateMutability": "nonpayable",
      "type": "function"
    },
    {
      "inputs": [],
      "name": "owner",
      "outputs": [
        {
          "internalType": "address",
          "name": "",
          "type": "address"
        }
      ],
      "stateMutability": "view",
      "type": "function"
    },
    {
      "inputs": [],
      "name": "renounceOwnership",
      "outputs": [],
      "stateMutability": "nonpayable",
      "type": "function"
    },
    {
      "inputs": [
        {
          "internalType": "address",
          "name": "newOwner",
          "type": "address"
        }
      ],
      "name": "transferOwnership",
      "outputs": [],
      "stateMutability": "nonpayable",
      "type": "function"
    }
  ],
  "transactionHash": "0x7855741d3ebddc0c080d758e41c77afa6070c6baf9e2a0338c5827cc28d18442",
  "args": [
    "0x5FbDB2315678afecb367f032d93F642f64180aa3"
  ],
  "numDeployments": 2,
  "solcInputHash": "2895e099817db52cb8160d6c72b570bb",
  "bytecode": "0x60a06040523480156200001157600080fd5b50604051620019e7380380620019e78339818101604052810190620000379190620001c8565b620000576200004b6200009260201b60201c565b6200009a60201b60201c565b8073ffffffffffffffffffffffffffffffffffffffff1660808173ffffffffffffffffffffffffffffffffffffffff168152505050620001fa565b600033905090565b60008060009054906101000a900473ffffffffffffffffffffffffffffffffffffffff169050816000806101000a81548173ffffffffffffffffffffffffffffffffffffffff021916908373ffffffffffffffffffffffffffffffffffffffff1602179055508173ffffffffffffffffffffffffffffffffffffffff168173ffffffffffffffffffffffffffffffffffffffff167f8be0079c531659141344cd1fd0a4f28419497f9722a3daafe3b4186f6b6457e060405160405180910390a35050565b600080fd5b600073ffffffffffffffffffffffffffffffffffffffff82169050919050565b6000620001908262000163565b9050919050565b620001a28162000183565b8114620001ae57600080fd5b50565b600081519050620001c28162000197565b92915050565b600060208284031215620001e157620001e06200015e565b5b6000620001f184828501620001b1565b91505092915050565b6080516117d162000216600039600061059b01526117d16000f3fe608060405234801561001057600080fd5b50600436106100625760003560e01c806323a36d2b14610067578063715018a6146100835780638d66ec971461008d5780638da5cb5b146100a9578063c4aa03b3146100c7578063f2fde38b146100e3575b600080fd5b610081600480360381019061007c9190610be6565b6100ff565b005b61008b6102e6565b005b6100a760048036038101906100a29190610d92565b6102fa565b005b6100b1610519565b6040516100be9190610e10565b60405180910390f35b6100e160048036038101906100dc9190610fa3565b610542565b005b6100fd60048036038101906100f8919061104a565b6107ab565b005b80600160008573ffffffffffffffffffffffffffffffffffffffff1673ffffffffffffffffffffffffffffffffffffffff168152602001908152602001600020600201838154811061015457610153611077565b5b90600052602060002001541015610197576040517f5c8bbb6700000000000000000000000000000000000000000000000000000000815260040160405180910390fd5b80600160008573ffffffffffffffffffffffffffffffffffffffff1673ffffffffffffffffffffffffffffffffffffffff16815260200190815260200160002060020183815481106101ec576101eb611077565b5b90600052602060002001600082825461020591906110d5565b92505081905550813373ffffffffffffffffffffffffffffffffffffffff168473ffffffffffffffffffffffffffffffffffffffff167f747bd6dbfd6ceb446b50b008eeade0e74f807993dd969546d7efd6008554b1d08460405161026a9190611118565b60405180910390a48273ffffffffffffffffffffffffffffffffffffffff1663156e29f63384846040518463ffffffff1660e01b81526004016102af93929190611133565b600060405180830381600087803b1580156102c957600080fd5b505af11580156102dd573d6000803e3d6000fd5b50505050505050565b6102ee61082f565b6102f860006108ad565b565b61030261082f565b6000600160008573ffffffffffffffffffffffffffffffffffffffff1673ffffffffffffffffffffffffffffffffffffffff168152602001908152602001600020600201838154811061035857610357611077565b5b9060005260206000200154141561039b576040517f5c8bbb6700000000000000000000000000000000000000000000000000000000815260040160405180910390fd5b60018060008573ffffffffffffffffffffffffffffffffffffffff1673ffffffffffffffffffffffffffffffffffffffff16815260200190815260200160002060020183815481106103f0576103ef611077565b5b90600052602060002001600082825461040991906110d5565b92505081905550818160405161041f9190611222565b60405180910390208473ffffffffffffffffffffffffffffffffffffffff167f43566ca179e4d3ebf6f158a1b882a4d1bce024218f4653bea26824b9f2069f8860405160405180910390a460005b8151811015610513578373ffffffffffffffffffffffffffffffffffffffff1663156e29f68383815181106104a5576104a4611077565b5b60200260200101518560016040518463ffffffff1660e01b81526004016104ce9392919061127e565b600060405180830381600087803b1580156104e857600080fd5b505af11580156104fc573d6000803e3d6000fd5b50505050808061050b906112b5565b91505061046d565b50505050565b60008060009054906101000a900473ffffffffffffffffffffffffffffffffffffffff16905090565b61054a61082f565b805182511461059457815181516040517f85eee4b700000000000000000000000000000000000000000000000000000000815260040161058b9291906112fe565b60405180910390fd5b60006105bf7f0000000000000000000000000000000000000000000000000000000000000000610971565b90508073ffffffffffffffffffffffffffffffffffffffff16634571e3a63330876040518463ffffffff1660e01b81526004016105fe939291906113af565b600060405180830381600087803b15801561061857600080fd5b505af115801561062c573d6000803e3d6000fd5b50505050600060405180606001604052803073ffffffffffffffffffffffffffffffffffffffff16815260200186815260200184815250905080600160008473ffffffffffffffffffffffffffffffffffffffff1673ffffffffffffffffffffffffffffffffffffffff16815260200190815260200160002060008201518160000160006101000a81548173ffffffffffffffffffffffffffffffffffffffff021916908373ffffffffffffffffffffffffffffffffffffffff1602179055506020820151816001019080519060200190610708929190610a4e565b506040820151816002019080519060200190610725929190610ad4565b50905050846040516107379190611429565b60405180910390203073ffffffffffffffffffffffffffffffffffffffff168373ffffffffffffffffffffffffffffffffffffffff167f3d55aa1ddd3aa1b0a95603d92a6512c5bebeb1c9a22aa6270dad11e4ef0675608460405161079c91906115ae565b60405180910390a45050505050565b6107b361082f565b600073ffffffffffffffffffffffffffffffffffffffff168173ffffffffffffffffffffffffffffffffffffffff161415610823576040517f08c379a000000000000000000000000000000000000000000000000000000000815260040161081a90611642565b60405180910390fd5b61082c816108ad565b50565b610837610a46565b73ffffffffffffffffffffffffffffffffffffffff16610855610519565b73ffffffffffffffffffffffffffffffffffffffff16146108ab576040517f08c379a00000000000000000000000000000000000000000000000000000000081526004016108a2906116ae565b60405180910390fd5b565b60008060009054906101000a900473ffffffffffffffffffffffffffffffffffffffff169050816000806101000a81548173ffffffffffffffffffffffffffffffffffffffff021916908373ffffffffffffffffffffffffffffffffffffffff1602179055508173ffffffffffffffffffffffffffffffffffffffff168173ffffffffffffffffffffffffffffffffffffffff167f8be0079c531659141344cd1fd0a4f28419497f9722a3daafe3b4186f6b6457e060405160405180910390a35050565b60006040517f3d602d80600a3d3981f3363d3d373d3d3d363d7300000000000000000000000081528260601b60148201527f5af43d82803e903d91602b57fd5bf3000000000000000000000000000000000060288201526037816000f0915050600073ffffffffffffffffffffffffffffffffffffffff168173ffffffffffffffffffffffffffffffffffffffff161415610a41576040517f08c379a0000000000000000000000000000000000000000000000000000000008152600401610a389061171a565b60405180910390fd5b919050565b600033905090565b828054610a5a90611769565b90600052602060002090601f016020900481019282610a7c5760008555610ac3565b82601f10610a9557805160ff1916838001178555610ac3565b82800160010185558215610ac3579182015b82811115610ac2578251825591602001919060010190610aa7565b5b509050610ad09190610b21565b5090565b828054828255906000526020600020908101928215610b10579160200282015b82811115610b0f578251825591602001919060010190610af4565b5b509050610b1d9190610b21565b5090565b5b80821115610b3a576000816000905550600101610b22565b5090565b6000604051905090565b600080fd5b600080fd5b600073ffffffffffffffffffffffffffffffffffffffff82169050919050565b6000610b7d82610b52565b9050919050565b610b8d81610b72565b8114610b9857600080fd5b50565b600081359050610baa81610b84565b92915050565b6000819050919050565b610bc381610bb0565b8114610bce57600080fd5b50565b600081359050610be081610bba565b92915050565b600080600060608486031215610bff57610bfe610b48565b5b6000610c0d86828701610b9b565b9350506020610c1e86828701610bd1565b9250506040610c2f86828701610bd1565b9150509250925092565b600080fd5b6000601f19601f8301169050919050565b7f4e487b7100000000000000000000000000000000000000000000000000000000600052604160045260246000fd5b610c8782610c3e565b810181811067ffffffffffffffff82111715610ca657610ca5610c4f565b5b80604052505050565b6000610cb9610b3e565b9050610cc58282610c7e565b919050565b600067ffffffffffffffff821115610ce557610ce4610c4f565b5b602082029050602081019050919050565b600080fd5b6000610d0e610d0984610cca565b610caf565b90508083825260208201905060208402830185811115610d3157610d30610cf6565b5b835b81811015610d5a5780610d468882610b9b565b845260208401935050602081019050610d33565b5050509392505050565b600082601f830112610d7957610d78610c39565b5b8135610d89848260208601610cfb565b91505092915050565b600080600060608486031215610dab57610daa610b48565b5b6000610db986828701610b9b565b9350506020610dca86828701610bd1565b925050604084013567ffffffffffffffff811115610deb57610dea610b4d565b5b610df786828701610d64565b9150509250925092565b610e0a81610b72565b82525050565b6000602082019050610e256000830184610e01565b92915050565b600080fd5b600067ffffffffffffffff821115610e4b57610e4a610c4f565b5b610e5482610c3e565b9050602081019050919050565b82818337600083830152505050565b6000610e83610e7e84610e30565b610caf565b905082815260208101848484011115610e9f57610e9e610e2b565b5b610eaa848285610e61565b509392505050565b600082601f830112610ec757610ec6610c39565b5b8135610ed7848260208601610e70565b91505092915050565b600067ffffffffffffffff821115610efb57610efa610c4f565b5b602082029050602081019050919050565b6000610f1f610f1a84610ee0565b610caf565b90508083825260208201905060208402830185811115610f4257610f41610cf6565b5b835b81811015610f6b5780610f578882610bd1565b845260208401935050602081019050610f44565b5050509392505050565b600082601f830112610f8a57610f89610c39565b5b8135610f9a848260208601610f0c565b91505092915050565b600080600060608486031215610fbc57610fbb610b48565b5b600084013567ffffffffffffffff811115610fda57610fd9610b4d565b5b610fe686828701610eb2565b935050602084013567ffffffffffffffff81111561100757611006610b4d565b5b61101386828701610f75565b925050604084013567ffffffffffffffff81111561103457611033610b4d565b5b61104086828701610f75565b9150509250925092565b6000602082840312156110605761105f610b48565b5b600061106e84828501610b9b565b91505092915050565b7f4e487b7100000000000000000000000000000000000000000000000000000000600052603260045260246000fd5b7f4e487b7100000000000000000000000000000000000000000000000000000000600052601160045260246000fd5b60006110e082610bb0565b91506110eb83610bb0565b9250828210156110fe576110fd6110a6565b5b828203905092915050565b61111281610bb0565b82525050565b600060208201905061112d6000830184611109565b92915050565b60006060820190506111486000830186610e01565b6111556020830185611109565b6111626040830184611109565b949350505050565b600081519050919050565b600081905092915050565b6000819050602082019050919050565b61119981610b72565b82525050565b60006111ab8383611190565b60208301905092915050565b6000602082019050919050565b60006111cf8261116a565b6111d98185611175565b93506111e483611180565b8060005b838110156112155781516111fc888261119f565b9750611207836111b7565b9250506001810190506111e8565b5085935050505092915050565b600061122e82846111c4565b915081905092915050565b6000819050919050565b6000819050919050565b600061126861126361125e84611239565b611243565b610bb0565b9050919050565b6112788161124d565b82525050565b60006060820190506112936000830186610e01565b6112a06020830185611109565b6112ad604083018461126f565b949350505050565b60006112c082610bb0565b91507fffffffffffffffffffffffffffffffffffffffffffffffffffffffffffffffff8214156112f3576112f26110a6565b5b600182019050919050565b60006040820190506113136000830185611109565b6113206020830184611109565b9392505050565b600081519050919050565b600082825260208201905092915050565b60005b83811015611361578082015181840152602081019050611346565b83811115611370576000848401525b50505050565b600061138182611327565b61138b8185611332565b935061139b818560208601611343565b6113a481610c3e565b840191505092915050565b60006060820190506113c46000830186610e01565b6113d16020830185610e01565b81810360408301526113e38184611376565b9050949350505050565b600081905092915050565b600061140382611327565b61140d81856113ed565b935061141d818560208601611343565b80840191505092915050565b600061143582846113f8565b915081905092915050565b61144981610b72565b82525050565b600082825260208201905092915050565b600061146b82611327565b611475818561144f565b9350611485818560208601611343565b61148e81610c3e565b840191505092915050565b600081519050919050565b600082825260208201905092915050565b6000819050602082019050919050565b6114ce81610bb0565b82525050565b60006114e083836114c5565b60208301905092915050565b6000602082019050919050565b600061150482611499565b61150e81856114a4565b9350611519836114b5565b8060005b8381101561154a57815161153188826114d4565b975061153c836114ec565b92505060018101905061151d565b5085935050505092915050565b600060608301600083015161156f6000860182611440565b50602083015184820360208601526115878282611460565b915050604083015184820360408601526115a182826114f9565b9150508091505092915050565b600060208201905081810360008301526115c88184611557565b905092915050565b7f4f776e61626c653a206e6577206f776e657220697320746865207a65726f206160008201527f6464726573730000000000000000000000000000000000000000000000000000602082015250565b600061162c602683611332565b9150611637826115d0565b604082019050919050565b6000602082019050818103600083015261165b8161161f565b9050919050565b7f4f776e61626c653a2063616c6c6572206973206e6f7420746865206f776e6572600082015250565b6000611698602083611332565b91506116a382611662565b602082019050919050565b600060208201905081810360008301526116c78161168b565b9050919050565b7f455243313136373a20637265617465206661696c656400000000000000000000600082015250565b6000611704601683611332565b915061170f826116ce565b602082019050919050565b60006020820190508181036000830152611733816116f7565b9050919050565b7f4e487b7100000000000000000000000000000000000000000000000000000000600052602260045260246000fd5b6000600282049050600182168061178157607f821691505b602082108114156117955761179461173a565b5b5091905056fea26469706673582212209cc45d7b081529d8dffde59219f190cb364c11f12d18e5d62b8cc81e8a32114b64736f6c634300080a0033",
  "devdoc": {
    "kind": "dev",
    "methods": {
      "airdropNewTokens(address,uint256,address[])": {
        "params": {
          "_collectionAddress": ": The Collection (ERC-1155) clone address.",
          "_to": ": Array of the reward/ aidrop recipients.",
          "_tokenId": ": The ID of the token to be airdropped."
        }
      },
      "createCollection(string,uint256[],uint256[])": {
        "params": {
          "_baseMetadataURI": ": Base Metadata URI for ERC-1155 collection.",
          "_initialSupplies": ": Array of the initial supplies corresponding to the token Id.",
          "_tokenIds": ": Array of the token Ids."
        }
      },
      "mintToken(address,uint256,uint256)": {
        "params": {
          "_amount": ": Amount of tokens to be minted to msg.sender.",
          "_collectionAddress": ": The Collection (ERC-1155) clone address.",
          "_tokenId": ": The ID of the token to be minted."
        }
      },
      "owner()": {
        "details": "Returns the address of the current owner."
      },
      "renounceOwnership()": {
        "details": "Leaves the contract without owner. It will not be possible to call `onlyOwner` functions anymore. Can only be called by the current owner. NOTE: Renouncing ownership will leave the contract without an owner, thereby removing any functionality that is only available to the owner."
      },
      "transferOwnership(address)": {
        "details": "Transfers ownership of the contract to a new account (`newOwner`). Can only be called by the current owner."
      }
    },
    "version": 1
  },
  "userdoc": {
    "kind": "user",
    "methods": {
      "airdropNewTokens(address,uint256,address[])": {
        "notice": "Method for Airdropping a single token to those receiving rewards/ airdrops."
      },
      "createCollection(string,uint256[],uint256[])": {
        "notice": "Method for creating an ERC-1555 upgradeable collection."
      },
      "mintToken(address,uint256,uint256)": {
        "notice": "Method for Minting a specified amount of tokens to msg.sender."
      }
    },
    "version": 1
  },
  "storageLayout": {
    "storage": [
      {
        "astId": 1922,
        "contract": "contracts/Community.sol:Community",
        "label": "_owner",
        "offset": 0,
        "slot": "0",
        "type": "t_address"
      },
      {
        "astId": 2237,
        "contract": "contracts/Community.sol:Community",
        "label": "addrToCollection",
        "offset": 0,
        "slot": "1",
        "type": "t_mapping(t_address,t_struct(Collection)2230_storage)"
      }
    ],
    "types": {
      "t_address": {
        "encoding": "inplace",
        "label": "address",
        "numberOfBytes": "20"
      },
      "t_array(t_uint256)dyn_storage": {
        "base": "t_uint256",
        "encoding": "dynamic_array",
        "label": "uint256[]",
        "numberOfBytes": "32"
      },
      "t_mapping(t_address,t_struct(Collection)2230_storage)": {
        "encoding": "mapping",
        "key": "t_address",
        "label": "mapping(address => struct Community.Collection)",
        "numberOfBytes": "32",
        "value": "t_struct(Collection)2230_storage"
      },
      "t_string_storage": {
        "encoding": "bytes",
        "label": "string",
        "numberOfBytes": "32"
      },
      "t_struct(Collection)2230_storage": {
        "encoding": "inplace",
        "label": "struct Community.Collection",
        "members": [
          {
            "astId": 2224,
            "contract": "contracts/Community.sol:Community",
            "label": "communityAddress",
            "offset": 0,
            "slot": "0",
            "type": "t_address"
          },
          {
            "astId": 2226,
            "contract": "contracts/Community.sol:Community",
            "label": "baseMetadataURI",
            "offset": 0,
            "slot": "1",
            "type": "t_string_storage"
          },
          {
            "astId": 2229,
            "contract": "contracts/Community.sol:Community",
            "label": "supplies",
            "offset": 0,
            "slot": "2",
            "type": "t_array(t_uint256)dyn_storage"
          }
        ],
        "numberOfBytes": "96"
      },
      "t_uint256": {
        "encoding": "inplace",
        "label": "uint256",
        "numberOfBytes": "32"
      }
    }
  }
}