{
  "address": "0xc72DF9762e0e71015bC81f6864F3cd50C2e6C33c",
  "abi": [
    {
      "inputs": [],
      "name": "Community__NotEnoughSupply",
      "type": "error"
    },
    {
      "inputs": [
        {
          "internalType": "uint256",
          "name": "idsLength",
          "type": "uint256"
        },
        {
          "internalType": "uint256",
          "name": "suppliesLength",
          "type": "uint256"
        }
      ],
      "name": "Community__TokenIdsDoNotMatchTokenSupplies",
      "type": "error"
    },
    {
      "anonymous": false,
      "inputs": [
        {
          "indexed": true,
          "internalType": "address",
          "name": "collectionAddress",
          "type": "address"
        },
        {
          "indexed": true,
          "internalType": "address",
          "name": "communityAddress",
          "type": "address"
        },
        {
          "indexed": false,
          "internalType": "string",
          "name": "baseMetaDataURI",
          "type": "string"
        },
        {
          "components": [
            {
              "internalType": "address",
              "name": "communityAddress",
              "type": "address"
            },
            {
              "internalType": "string",
              "name": "baseMetadataURI",
              "type": "string"
            },
            {
              "internalType": "uint256[]",
              "name": "supplies",
              "type": "uint256[]"
            }
          ],
          "indexed": false,
          "internalType": "struct Community.Collection",
          "name": "collection",
          "type": "tuple"
        }
      ],
      "name": "CollectionCreated",
      "type": "event"
    },
    {
      "anonymous": false,
      "inputs": [
        {
          "indexed": false,
          "internalType": "uint8",
          "name": "version",
          "type": "uint8"
        }
      ],
      "name": "Initialized",
      "type": "event"
    },
    {
      "anonymous": false,
      "inputs": [
        {
          "indexed": true,
          "internalType": "address",
          "name": "collectionAddress",
          "type": "address"
        },
        {
          "indexed": true,
          "internalType": "address[]",
          "name": "to",
          "type": "address[]"
        },
        {
          "indexed": true,
          "internalType": "uint256",
          "name": "tokenId",
          "type": "uint256"
        }
      ],
      "name": "NewTokenAirdropped",
      "type": "event"
    },
    {
      "anonymous": false,
      "inputs": [
        {
          "indexed": true,
          "internalType": "address",
          "name": "previousOwner",
          "type": "address"
        },
        {
          "indexed": true,
          "internalType": "address",
          "name": "newOwner",
          "type": "address"
        }
      ],
      "name": "OwnershipTransferred",
      "type": "event"
    },
    {
      "anonymous": false,
      "inputs": [
        {
          "indexed": true,
          "internalType": "address",
          "name": "collectionAddress",
          "type": "address"
        },
        {
          "indexed": true,
          "internalType": "address",
          "name": "to",
          "type": "address"
        },
        {
          "indexed": true,
          "internalType": "uint256",
          "name": "tokenId",
          "type": "uint256"
        },
        {
          "indexed": false,
          "internalType": "uint256",
          "name": "amount",
          "type": "uint256"
        }
      ],
      "name": "TokenMinted",
      "type": "event"
    },
    {
      "inputs": [
        {
          "internalType": "address",
          "name": "_collectionAddress",
          "type": "address"
        },
        {
          "internalType": "uint256",
          "name": "_tokenId",
          "type": "uint256"
        },
        {
          "internalType": "address[]",
          "name": "_to",
          "type": "address[]"
        }
      ],
      "name": "airdropNewTokens",
      "outputs": [],
      "stateMutability": "nonpayable",
      "type": "function"
    },
    {
      "inputs": [
        {
          "internalType": "string",
          "name": "_baseMetadataURI",
          "type": "string"
        },
        {
          "internalType": "uint256[]",
          "name": "_tokenIds",
          "type": "uint256[]"
        },
        {
          "internalType": "uint256[]",
          "name": "_initialSupplies",
          "type": "uint256[]"
        }
      ],
      "name": "createCollection",
      "outputs": [],
      "stateMutability": "nonpayable",
      "type": "function"
    },
    {
      "inputs": [
        {
          "internalType": "address",
          "name": "_collectionAddress",
          "type": "address"
        }
      ],
      "name": "getCollection",
      "outputs": [
        {
          "components": [
            {
              "internalType": "address",
              "name": "communityAddress",
              "type": "address"
            },
            {
              "internalType": "string",
              "name": "baseMetadataURI",
              "type": "string"
            },
            {
              "internalType": "uint256[]",
              "name": "supplies",
              "type": "uint256[]"
            }
          ],
          "internalType": "struct Community.Collection",
          "name": "",
          "type": "tuple"
        }
      ],
      "stateMutability": "view",
      "type": "function"
    },
    {
      "inputs": [
        {
          "internalType": "address",
          "name": "_collectionImplemenation",
          "type": "address"
        }
      ],
      "name": "initialize",
      "outputs": [],
      "stateMutability": "nonpayable",
      "type": "function"
    },
    {
      "inputs": [
        {
          "internalType": "address",
          "name": "_collectionAddress",
          "type": "address"
        },
        {
          "internalType": "uint256",
          "name": "_tokenId",
          "type": "uint256"
        },
        {
          "internalType": "uint256",
          "name": "_amount",
          "type": "uint256"
        }
      ],
      "name": "mintToken",
      "outputs": [],
      "stateMutability": "nonpayable",
      "type": "function"
    },
    {
      "inputs": [],
      "name": "owner",
      "outputs": [
        {
          "internalType": "address",
          "name": "",
          "type": "address"
        }
      ],
      "stateMutability": "view",
      "type": "function"
    },
    {
      "inputs": [],
      "name": "renounceOwnership",
      "outputs": [],
      "stateMutability": "nonpayable",
      "type": "function"
    },
    {
      "inputs": [
        {
          "internalType": "address",
          "name": "newOwner",
          "type": "address"
        }
      ],
      "name": "transferOwnership",
      "outputs": [],
      "stateMutability": "nonpayable",
      "type": "function"
    }
  ],
  "transactionHash": "0x3ace9f8080bf4afaf4648b4fe54f0857e59c6d7d685e451c379fdf8e157c7d53",
  "args": [],
  "numDeployments": 4,
  "solcInputHash": "888e35dfc1252d4a66f7cf288cdd2c98",
  "bytecode": "0x608060405234801561001057600080fd5b5061002d61002261003260201b60201c565b61003a60201b60201c565b6100fe565b600033905090565b60008060009054906101000a900473ffffffffffffffffffffffffffffffffffffffff169050816000806101000a81548173ffffffffffffffffffffffffffffffffffffffff021916908373ffffffffffffffffffffffffffffffffffffffff1602179055508173ffffffffffffffffffffffffffffffffffffffff168173ffffffffffffffffffffffffffffffffffffffff167f8be0079c531659141344cd1fd0a4f28419497f9722a3daafe3b4186f6b6457e060405160405180910390a35050565b611c7a8061010d6000396000f3fe608060405234801561001057600080fd5b50600436106100885760003560e01c8063c4aa03b31161005b578063c4aa03b3146100ed578063c4d66de814610109578063e40de88714610125578063f2fde38b1461015557610088565b806323a36d2b1461008d578063715018a6146100a95780638d66ec97146100b35780638da5cb5b146100cf575b600080fd5b6100a760048036038101906100a29190610fc0565b610171565b005b6100b1610358565b005b6100cd60048036038101906100c8919061116c565b61036c565b005b6100d761058c565b6040516100e491906111ea565b60405180910390f35b6101076004803603810190610102919061137d565b6105b5565b005b610123600480360381019061011e9190611424565b61080c565b005b61013f600480360381019061013a9190611424565b610992565b60405161014c91906115fd565b60405180910390f35b61016f600480360381019061016a9190611424565b610b2b565b005b80600260008573ffffffffffffffffffffffffffffffffffffffff1673ffffffffffffffffffffffffffffffffffffffff16815260200190815260200160002060020183815481106101c6576101c561161f565b5b90600052602060002001541015610209576040517f5c8bbb6700000000000000000000000000000000000000000000000000000000815260040160405180910390fd5b80600260008573ffffffffffffffffffffffffffffffffffffffff1673ffffffffffffffffffffffffffffffffffffffff168152602001908152602001600020600201838154811061025e5761025d61161f565b5b906000526020600020016000828254610277919061167d565b92505081905550813373ffffffffffffffffffffffffffffffffffffffff168473ffffffffffffffffffffffffffffffffffffffff167f747bd6dbfd6ceb446b50b008eeade0e74f807993dd969546d7efd6008554b1d0846040516102dc91906116c0565b60405180910390a48273ffffffffffffffffffffffffffffffffffffffff1663156e29f63384846040518463ffffffff1660e01b8152600401610321939291906116db565b600060405180830381600087803b15801561033b57600080fd5b505af115801561034f573d6000803e3d6000fd5b50505050505050565b610360610baf565b61036a6000610c2d565b565b610374610baf565b6000600260008573ffffffffffffffffffffffffffffffffffffffff1673ffffffffffffffffffffffffffffffffffffffff16815260200190815260200160002060020183815481106103ca576103c961161f565b5b9060005260206000200154141561040d576040517f5c8bbb6700000000000000000000000000000000000000000000000000000000815260040160405180910390fd5b6001600260008573ffffffffffffffffffffffffffffffffffffffff1673ffffffffffffffffffffffffffffffffffffffff16815260200190815260200160002060020183815481106104635761046261161f565b5b90600052602060002001600082825461047c919061167d565b92505081905550818160405161049291906117ca565b60405180910390208473ffffffffffffffffffffffffffffffffffffffff167f43566ca179e4d3ebf6f158a1b882a4d1bce024218f4653bea26824b9f2069f8860405160405180910390a460005b8151811015610586578373ffffffffffffffffffffffffffffffffffffffff1663156e29f68383815181106105185761051761161f565b5b60200260200101518560016040518463ffffffff1660e01b815260040161054193929190611826565b600060405180830381600087803b15801561055b57600080fd5b505af115801561056f573d6000803e3d6000fd5b50505050808061057e9061185d565b9150506104e0565b50505050565b60008060009054906101000a900473ffffffffffffffffffffffffffffffffffffffff16905090565b6105bd610baf565b805182511461060757815181516040517f85eee4b70000000000000000000000000000000000000000000000000000000081526004016105fe9291906118a6565b60405180910390fd5b6000610634600160009054906101000a900473ffffffffffffffffffffffffffffffffffffffff16610cf1565b90508073ffffffffffffffffffffffffffffffffffffffff16634571e3a63330876040518463ffffffff1660e01b815260040161067393929190611919565b600060405180830381600087803b15801561068d57600080fd5b505af11580156106a1573d6000803e3d6000fd5b50505050600060405180606001604052803073ffffffffffffffffffffffffffffffffffffffff16815260200186815260200184815250905080600260008473ffffffffffffffffffffffffffffffffffffffff1673ffffffffffffffffffffffffffffffffffffffff16815260200190815260200160002060008201518160000160006101000a81548173ffffffffffffffffffffffffffffffffffffffff021916908373ffffffffffffffffffffffffffffffffffffffff160217905550602082015181600101908051906020019061077d929190610df1565b50604082015181600201908051906020019061079a929190610e77565b509050503073ffffffffffffffffffffffffffffffffffffffff168273ffffffffffffffffffffffffffffffffffffffff167f3d55aa1ddd3aa1b0a95603d92a6512c5bebeb1c9a22aa6270dad11e4ef06756087846040516107fd929190611957565b60405180910390a35050505050565b60008060159054906101000a900460ff1615905080801561083f57506001600060149054906101000a900460ff1660ff16105b8061086e575061084e30610dc6565b15801561086d57506001600060149054906101000a900460ff1660ff16145b5b6108ad576040517f08c379a00000000000000000000000000000000000000000000000000000000081526004016108a490611a00565b60405180910390fd5b6001600060146101000a81548160ff021916908360ff16021790555080156108eb576001600060156101000a81548160ff0219169083151502179055505b81600160006101000a81548173ffffffffffffffffffffffffffffffffffffffff021916908373ffffffffffffffffffffffffffffffffffffffff16021790555061093532610c2d565b801561098e5760008060156101000a81548160ff0219169083151502179055507f7f26b83ff96e1f2b6a682f133852f6798a09c465da95921460cefb384740249860016040516109859190611a5e565b60405180910390a15b5050565b61099a610ec4565b600260008373ffffffffffffffffffffffffffffffffffffffff1673ffffffffffffffffffffffffffffffffffffffff1681526020019081526020016000206040518060600160405290816000820160009054906101000a900473ffffffffffffffffffffffffffffffffffffffff1673ffffffffffffffffffffffffffffffffffffffff1673ffffffffffffffffffffffffffffffffffffffff168152602001600182018054610a4a90611aa8565b80601f0160208091040260200160405190810160405280929190818152602001828054610a7690611aa8565b8015610ac35780601f10610a9857610100808354040283529160200191610ac3565b820191906000526020600020905b815481529060010190602001808311610aa657829003601f168201915b5050505050815260200160028201805480602002602001604051908101604052809291908181526020018280548015610b1b57602002820191906000526020600020905b815481526020019060010190808311610b07575b5050505050815250509050919050565b610b33610baf565b600073ffffffffffffffffffffffffffffffffffffffff168173ffffffffffffffffffffffffffffffffffffffff161415610ba3576040517f08c379a0000000000000000000000000000000000000000000000000000000008152600401610b9a90611b4c565b60405180910390fd5b610bac81610c2d565b50565b610bb7610de9565b73ffffffffffffffffffffffffffffffffffffffff16610bd561058c565b73ffffffffffffffffffffffffffffffffffffffff1614610c2b576040517f08c379a0000000000000000000000000000000000000000000000000000000008152600401610c2290611bb8565b60405180910390fd5b565b60008060009054906101000a900473ffffffffffffffffffffffffffffffffffffffff169050816000806101000a81548173ffffffffffffffffffffffffffffffffffffffff021916908373ffffffffffffffffffffffffffffffffffffffff1602179055508173ffffffffffffffffffffffffffffffffffffffff168173ffffffffffffffffffffffffffffffffffffffff167f8be0079c531659141344cd1fd0a4f28419497f9722a3daafe3b4186f6b6457e060405160405180910390a35050565b60006040517f3d602d80600a3d3981f3363d3d373d3d3d363d7300000000000000000000000081528260601b60148201527f5af43d82803e903d91602b57fd5bf3000000000000000000000000000000000060288201526037816000f0915050600073ffffffffffffffffffffffffffffffffffffffff168173ffffffffffffffffffffffffffffffffffffffff161415610dc1576040517f08c379a0000000000000000000000000000000000000000000000000000000008152600401610db890611c24565b60405180910390fd5b919050565b6000808273ffffffffffffffffffffffffffffffffffffffff163b119050919050565b600033905090565b828054610dfd90611aa8565b90600052602060002090601f016020900481019282610e1f5760008555610e66565b82601f10610e3857805160ff1916838001178555610e66565b82800160010185558215610e66579182015b82811115610e65578251825591602001919060010190610e4a565b5b509050610e739190610efb565b5090565b828054828255906000526020600020908101928215610eb3579160200282015b82811115610eb2578251825591602001919060010190610e97565b5b509050610ec09190610efb565b5090565b6040518060600160405280600073ffffffffffffffffffffffffffffffffffffffff16815260200160608152602001606081525090565b5b80821115610f14576000816000905550600101610efc565b5090565b6000604051905090565b600080fd5b600080fd5b600073ffffffffffffffffffffffffffffffffffffffff82169050919050565b6000610f5782610f2c565b9050919050565b610f6781610f4c565b8114610f7257600080fd5b50565b600081359050610f8481610f5e565b92915050565b6000819050919050565b610f9d81610f8a565b8114610fa857600080fd5b50565b600081359050610fba81610f94565b92915050565b600080600060608486031215610fd957610fd8610f22565b5b6000610fe786828701610f75565b9350506020610ff886828701610fab565b925050604061100986828701610fab565b9150509250925092565b600080fd5b6000601f19601f8301169050919050565b7f4e487b7100000000000000000000000000000000000000000000000000000000600052604160045260246000fd5b61106182611018565b810181811067ffffffffffffffff821117156110805761107f611029565b5b80604052505050565b6000611093610f18565b905061109f8282611058565b919050565b600067ffffffffffffffff8211156110bf576110be611029565b5b602082029050602081019050919050565b600080fd5b60006110e86110e3846110a4565b611089565b9050808382526020820190506020840283018581111561110b5761110a6110d0565b5b835b8181101561113457806111208882610f75565b84526020840193505060208101905061110d565b5050509392505050565b600082601f83011261115357611152611013565b5b81356111638482602086016110d5565b91505092915050565b60008060006060848603121561118557611184610f22565b5b600061119386828701610f75565b93505060206111a486828701610fab565b925050604084013567ffffffffffffffff8111156111c5576111c4610f27565b5b6111d18682870161113e565b9150509250925092565b6111e481610f4c565b82525050565b60006020820190506111ff60008301846111db565b92915050565b600080fd5b600067ffffffffffffffff82111561122557611224611029565b5b61122e82611018565b9050602081019050919050565b82818337600083830152505050565b600061125d6112588461120a565b611089565b90508281526020810184848401111561127957611278611205565b5b61128484828561123b565b509392505050565b600082601f8301126112a1576112a0611013565b5b81356112b184826020860161124a565b91505092915050565b600067ffffffffffffffff8211156112d5576112d4611029565b5b602082029050602081019050919050565b60006112f96112f4846112ba565b611089565b9050808382526020820190506020840283018581111561131c5761131b6110d0565b5b835b8181101561134557806113318882610fab565b84526020840193505060208101905061131e565b5050509392505050565b600082601f83011261136457611363611013565b5b81356113748482602086016112e6565b91505092915050565b60008060006060848603121561139657611395610f22565b5b600084013567ffffffffffffffff8111156113b4576113b3610f27565b5b6113c08682870161128c565b935050602084013567ffffffffffffffff8111156113e1576113e0610f27565b5b6113ed8682870161134f565b925050604084013567ffffffffffffffff81111561140e5761140d610f27565b5b61141a8682870161134f565b9150509250925092565b60006020828403121561143a57611439610f22565b5b600061144884828501610f75565b91505092915050565b61145a81610f4c565b82525050565b600081519050919050565b600082825260208201905092915050565b60005b8381101561149a57808201518184015260208101905061147f565b838111156114a9576000848401525b50505050565b60006114ba82611460565b6114c4818561146b565b93506114d481856020860161147c565b6114dd81611018565b840191505092915050565b600081519050919050565b600082825260208201905092915050565b6000819050602082019050919050565b61151d81610f8a565b82525050565b600061152f8383611514565b60208301905092915050565b6000602082019050919050565b6000611553826114e8565b61155d81856114f3565b935061156883611504565b8060005b838110156115995781516115808882611523565b975061158b8361153b565b92505060018101905061156c565b5085935050505092915050565b60006060830160008301516115be6000860182611451565b50602083015184820360208601526115d682826114af565b915050604083015184820360408601526115f08282611548565b9150508091505092915050565b6000602082019050818103600083015261161781846115a6565b905092915050565b7f4e487b7100000000000000000000000000000000000000000000000000000000600052603260045260246000fd5b7f4e487b7100000000000000000000000000000000000000000000000000000000600052601160045260246000fd5b600061168882610f8a565b915061169383610f8a565b9250828210156116a6576116a561164e565b5b828203905092915050565b6116ba81610f8a565b82525050565b60006020820190506116d560008301846116b1565b92915050565b60006060820190506116f060008301866111db565b6116fd60208301856116b1565b61170a60408301846116b1565b949350505050565b600081519050919050565b600081905092915050565b6000819050602082019050919050565b61174181610f4c565b82525050565b60006117538383611738565b60208301905092915050565b6000602082019050919050565b600061177782611712565b611781818561171d565b935061178c83611728565b8060005b838110156117bd5781516117a48882611747565b97506117af8361175f565b925050600181019050611790565b5085935050505092915050565b60006117d6828461176c565b915081905092915050565b6000819050919050565b6000819050919050565b600061181061180b611806846117e1565b6117eb565b610f8a565b9050919050565b611820816117f5565b82525050565b600060608201905061183b60008301866111db565b61184860208301856116b1565b6118556040830184611817565b949350505050565b600061186882610f8a565b91507fffffffffffffffffffffffffffffffffffffffffffffffffffffffffffffffff82141561189b5761189a61164e565b5b600182019050919050565b60006040820190506118bb60008301856116b1565b6118c860208301846116b1565b9392505050565b600082825260208201905092915050565b60006118eb82611460565b6118f581856118cf565b935061190581856020860161147c565b61190e81611018565b840191505092915050565b600060608201905061192e60008301866111db565b61193b60208301856111db565b818103604083015261194d81846118e0565b9050949350505050565b6000604082019050818103600083015261197181856118e0565b9050818103602083015261198581846115a6565b90509392505050565b7f496e697469616c697a61626c653a20636f6e747261637420697320616c72656160008201527f647920696e697469616c697a6564000000000000000000000000000000000000602082015250565b60006119ea602e836118cf565b91506119f58261198e565b604082019050919050565b60006020820190508181036000830152611a19816119dd565b9050919050565b600060ff82169050919050565b6000611a48611a43611a3e846117e1565b6117eb565b611a20565b9050919050565b611a5881611a2d565b82525050565b6000602082019050611a736000830184611a4f565b92915050565b7f4e487b7100000000000000000000000000000000000000000000000000000000600052602260045260246000fd5b60006002820490506001821680611ac057607f821691505b60208210811415611ad457611ad3611a79565b5b50919050565b7f4f776e61626c653a206e6577206f776e657220697320746865207a65726f206160008201527f6464726573730000000000000000000000000000000000000000000000000000602082015250565b6000611b366026836118cf565b9150611b4182611ada565b604082019050919050565b60006020820190508181036000830152611b6581611b29565b9050919050565b7f4f776e61626c653a2063616c6c6572206973206e6f7420746865206f776e6572600082015250565b6000611ba26020836118cf565b9150611bad82611b6c565b602082019050919050565b60006020820190508181036000830152611bd181611b95565b9050919050565b7f455243313136373a20637265617465206661696c656400000000000000000000600082015250565b6000611c0e6016836118cf565b9150611c1982611bd8565b602082019050919050565b60006020820190508181036000830152611c3d81611c01565b905091905056fea2646970667358221220eaace458f798d3457d4ca64d7b493d8af41b9a39a079fe65ae16462d58d34e9d64736f6c634300080a0033",
  "devdoc": {
    "kind": "dev",
    "methods": {
      "airdropNewTokens(address,uint256,address[])": {
        "params": {
          "_collectionAddress": ": The Collection (ERC-1155) clone address.",
          "_to": ": Array of the reward/ aidrop recipients.",
          "_tokenId": ": The ID of the token to be airdropped."
        }
      },
      "createCollection(string,uint256[],uint256[])": {
        "params": {
          "_baseMetadataURI": ": Base Metadata URI for ERC-1155 collection.",
          "_initialSupplies": ": Array of the initial supplies corresponding to the token Id.",
          "_tokenIds": ": Array of the token Ids."
        }
      },
      "mintToken(address,uint256,uint256)": {
        "params": {
          "_amount": ": Amount of tokens to be minted to msg.sender.",
          "_collectionAddress": ": The Collection (ERC-1155) clone address.",
          "_tokenId": ": The ID of the token to be minted."
        }
      },
      "owner()": {
        "details": "Returns the address of the current owner."
      },
      "renounceOwnership()": {
        "details": "Leaves the contract without owner. It will not be possible to call `onlyOwner` functions anymore. Can only be called by the current owner. NOTE: Renouncing ownership will leave the contract without an owner, thereby removing any functionality that is only available to the owner."
      },
      "transferOwnership(address)": {
        "details": "Transfers ownership of the contract to a new account (`newOwner`). Can only be called by the current owner."
      }
    },
    "version": 1
  },
  "userdoc": {
    "kind": "user",
    "methods": {
      "airdropNewTokens(address,uint256,address[])": {
        "notice": "Method for Airdropping a single token to those receiving rewards/ airdrops."
      },
      "createCollection(string,uint256[],uint256[])": {
        "notice": "Method for creating an ERC-1555 upgradeable collection."
      },
      "mintToken(address,uint256,uint256)": {
        "notice": "Method for Minting a specified amount of tokens to msg.sender."
      }
    },
    "version": 1
  },
  "storageLayout": {
    "storage": [
      {
        "astId": 1922,
        "contract": "contracts/Community.sol:Community",
        "label": "_owner",
        "offset": 0,
        "slot": "0",
        "type": "t_address"
      },
      {
        "astId": 6,
        "contract": "contracts/Community.sol:Community",
        "label": "_initialized",
        "offset": 20,
        "slot": "0",
        "type": "t_uint8"
      },
      {
        "astId": 9,
        "contract": "contracts/Community.sol:Community",
        "label": "_initializing",
        "offset": 21,
        "slot": "0",
        "type": "t_bool"
      },
      {
        "astId": 2157,
        "contract": "contracts/Community.sol:Community",
        "label": "collectionImplemenation",
        "offset": 0,
        "slot": "1",
        "type": "t_address"
      },
      {
        "astId": 2162,
        "contract": "contracts/Community.sol:Community",
        "label": "addrToCollection",
        "offset": 0,
        "slot": "2",
        "type": "t_mapping(t_address,t_struct(Collection)2155_storage)"
      }
    ],
    "types": {
      "t_address": {
        "encoding": "inplace",
        "label": "address",
        "numberOfBytes": "20"
      },
      "t_array(t_uint256)dyn_storage": {
        "base": "t_uint256",
        "encoding": "dynamic_array",
        "label": "uint256[]",
        "numberOfBytes": "32"
      },
      "t_bool": {
        "encoding": "inplace",
        "label": "bool",
        "numberOfBytes": "1"
      },
      "t_mapping(t_address,t_struct(Collection)2155_storage)": {
        "encoding": "mapping",
        "key": "t_address",
        "label": "mapping(address => struct Community.Collection)",
        "numberOfBytes": "32",
        "value": "t_struct(Collection)2155_storage"
      },
      "t_string_storage": {
        "encoding": "bytes",
        "label": "string",
        "numberOfBytes": "32"
      },
      "t_struct(Collection)2155_storage": {
        "encoding": "inplace",
        "label": "struct Community.Collection",
        "members": [
          {
            "astId": 2149,
            "contract": "contracts/Community.sol:Community",
            "label": "communityAddress",
            "offset": 0,
            "slot": "0",
            "type": "t_address"
          },
          {
            "astId": 2151,
            "contract": "contracts/Community.sol:Community",
            "label": "baseMetadataURI",
            "offset": 0,
            "slot": "1",
            "type": "t_string_storage"
          },
          {
            "astId": 2154,
            "contract": "contracts/Community.sol:Community",
            "label": "supplies",
            "offset": 0,
            "slot": "2",
            "type": "t_array(t_uint256)dyn_storage"
          }
        ],
        "numberOfBytes": "96"
      },
      "t_uint256": {
        "encoding": "inplace",
        "label": "uint256",
        "numberOfBytes": "32"
      },
      "t_uint8": {
        "encoding": "inplace",
        "label": "uint8",
        "numberOfBytes": "1"
      }
    }
  }
}