{
  "address": "0x1EEB3f763123feF02b530e2577a00d9276d71da5",
  "abi": [
    {
      "inputs": [
        {
          "internalType": "address",
          "name": "_implementationCommunity",
          "type": "address"
        },
        {
          "internalType": "address",
          "name": "_implementationCollection",
          "type": "address"
        }
      ],
      "stateMutability": "nonpayable",
      "type": "constructor"
    },
    {
      "anonymous": false,
      "inputs": [
        {
          "indexed": false,
          "internalType": "address",
          "name": "_clone",
          "type": "address"
        }
      ],
      "name": "NewClone",
      "type": "event"
    },
    {
      "anonymous": false,
      "inputs": [
        {
          "indexed": true,
          "internalType": "address",
          "name": "previousOwner",
          "type": "address"
        },
        {
          "indexed": true,
          "internalType": "address",
          "name": "newOwner",
          "type": "address"
        }
      ],
      "name": "OwnershipTransferred",
      "type": "event"
    },
    {
      "inputs": [
        {
          "internalType": "uint256",
          "name": "",
          "type": "uint256"
        }
      ],
      "name": "allClones",
      "outputs": [
        {
          "internalType": "address",
          "name": "",
          "type": "address"
        }
      ],
      "stateMutability": "view",
      "type": "function"
    },
    {
      "inputs": [],
      "name": "createNewCommunity",
      "outputs": [
        {
          "internalType": "address",
          "name": "instance",
          "type": "address"
        }
      ],
      "stateMutability": "nonpayable",
      "type": "function"
    },
    {
      "inputs": [],
      "name": "implementationCollection",
      "outputs": [
        {
          "internalType": "address",
          "name": "",
          "type": "address"
        }
      ],
      "stateMutability": "view",
      "type": "function"
    },
    {
      "inputs": [],
      "name": "implementationCommunity",
      "outputs": [
        {
          "internalType": "address",
          "name": "",
          "type": "address"
        }
      ],
      "stateMutability": "view",
      "type": "function"
    },
    {
      "inputs": [],
      "name": "owner",
      "outputs": [
        {
          "internalType": "address",
          "name": "",
          "type": "address"
        }
      ],
      "stateMutability": "view",
      "type": "function"
    },
    {
      "inputs": [],
      "name": "renounceOwnership",
      "outputs": [],
      "stateMutability": "nonpayable",
      "type": "function"
    },
    {
      "inputs": [
        {
          "internalType": "address",
          "name": "newOwner",
          "type": "address"
        }
      ],
      "name": "transferOwnership",
      "outputs": [],
      "stateMutability": "nonpayable",
      "type": "function"
    }
  ],
  "transactionHash": "0x1375eaed782523ee108dba692f8bc1db21856a23f9e6370558b3622cbe82c8d0",
  "args": [
    "0xe7f1725E7734CE288F8367e1Bb143E90bb3F0512",
    "0x5FbDB2315678afecb367f032d93F642f64180aa3"
  ],
  "numDeployments": 1,
  "solcInputHash": "33e63033d818ffed3a713c121e2d8b63",
  "bytecode": "0x608060405234801561001057600080fd5b5060405162000d2d38038062000d2d83398181016040528101906100349190610208565b6100506100456100d960201b60201c565b6100e160201b60201c565b81600160006101000a81548173ffffffffffffffffffffffffffffffffffffffff021916908373ffffffffffffffffffffffffffffffffffffffff16021790555080600260006101000a81548173ffffffffffffffffffffffffffffffffffffffff021916908373ffffffffffffffffffffffffffffffffffffffff1602179055505050610248565b600033905090565b60008060009054906101000a900473ffffffffffffffffffffffffffffffffffffffff169050816000806101000a81548173ffffffffffffffffffffffffffffffffffffffff021916908373ffffffffffffffffffffffffffffffffffffffff1602179055508173ffffffffffffffffffffffffffffffffffffffff168173ffffffffffffffffffffffffffffffffffffffff167f8be0079c531659141344cd1fd0a4f28419497f9722a3daafe3b4186f6b6457e060405160405180910390a35050565b600080fd5b600073ffffffffffffffffffffffffffffffffffffffff82169050919050565b60006101d5826101aa565b9050919050565b6101e5816101ca565b81146101f057600080fd5b50565b600081519050610202816101dc565b92915050565b6000806040838503121561021f5761021e6101a5565b5b600061022d858286016101f3565b925050602061023e858286016101f3565b9150509250929050565b610ad580620002586000396000f3fe608060405234801561001057600080fd5b506004361061007d5760003560e01c8063bf6471051161005b578063bf647105146100c8578063d7741cad146100e6578063ea20c45914610116578063f2fde38b146101345761007d565b806369bf27a314610082578063715018a6146100a05780638da5cb5b146100aa575b600080fd5b61008a610150565b6040516100979190610725565b60405180910390f35b6100a8610176565b005b6100b261018a565b6040516100bf9190610725565b60405180910390f35b6100d06101b3565b6040516100dd9190610725565b60405180910390f35b61010060048036038101906100fb919061077b565b6101d9565b60405161010d9190610725565b60405180910390f35b61011e610218565b60405161012b9190610725565b60405180910390f35b61014e600480360381019061014991906107d4565b610441565b005b600260009054906101000a900473ffffffffffffffffffffffffffffffffffffffff1681565b61017e6104c5565b6101886000610543565b565b60008060009054906101000a900473ffffffffffffffffffffffffffffffffffffffff16905090565b600160009054906101000a900473ffffffffffffffffffffffffffffffffffffffff1681565b600381815481106101e957600080fd5b906000526020600020016000915054906101000a900473ffffffffffffffffffffffffffffffffffffffff1681565b6000610245600160009054906101000a900473ffffffffffffffffffffffffffffffffffffffff16610607565b905060008173ffffffffffffffffffffffffffffffffffffffff16600260009054906101000a900473ffffffffffffffffffffffffffffffffffffffff166040516024016102939190610725565b6040516020818303038152906040527fc4d66de8000000000000000000000000000000000000000000000000000000007bffffffffffffffffffffffffffffffffffffffffffffffffffffffff19166020820180517bffffffffffffffffffffffffffffffffffffffffffffffffffffffff838183161783525050505060405161031d919061087b565b6000604051808303816000865af19150503d806000811461035a576040519150601f19603f3d011682016040523d82523d6000602084013e61035f565b606091505b50509050806103a3576040517f08c379a000000000000000000000000000000000000000000000000000000000815260040161039a90610915565b60405180910390fd5b6003829080600181540180825580915050600190039060005260206000200160009091909190916101000a81548173ffffffffffffffffffffffffffffffffffffffff021916908373ffffffffffffffffffffffffffffffffffffffff1602179055507fcc1e9c890bc4f4943c457abb8d17f97703b9f7144e1f4a69e50c6e4988ef38b7826040516104359190610725565b60405180910390a15090565b6104496104c5565b600073ffffffffffffffffffffffffffffffffffffffff168173ffffffffffffffffffffffffffffffffffffffff1614156104b9576040517f08c379a00000000000000000000000000000000000000000000000000000000081526004016104b0906109a7565b60405180910390fd5b6104c281610543565b50565b6104cd6106dc565b73ffffffffffffffffffffffffffffffffffffffff166104eb61018a565b73ffffffffffffffffffffffffffffffffffffffff1614610541576040517f08c379a000000000000000000000000000000000000000000000000000000000815260040161053890610a13565b60405180910390fd5b565b60008060009054906101000a900473ffffffffffffffffffffffffffffffffffffffff169050816000806101000a81548173ffffffffffffffffffffffffffffffffffffffff021916908373ffffffffffffffffffffffffffffffffffffffff1602179055508173ffffffffffffffffffffffffffffffffffffffff168173ffffffffffffffffffffffffffffffffffffffff167f8be0079c531659141344cd1fd0a4f28419497f9722a3daafe3b4186f6b6457e060405160405180910390a35050565b60006040517f3d602d80600a3d3981f3363d3d373d3d3d363d7300000000000000000000000081528260601b60148201527f5af43d82803e903d91602b57fd5bf3000000000000000000000000000000000060288201526037816000f0915050600073ffffffffffffffffffffffffffffffffffffffff168173ffffffffffffffffffffffffffffffffffffffff1614156106d7576040517f08c379a00000000000000000000000000000000000000000000000000000000081526004016106ce90610a7f565b60405180910390fd5b919050565b600033905090565b600073ffffffffffffffffffffffffffffffffffffffff82169050919050565b600061070f826106e4565b9050919050565b61071f81610704565b82525050565b600060208201905061073a6000830184610716565b92915050565b600080fd5b6000819050919050565b61075881610745565b811461076357600080fd5b50565b6000813590506107758161074f565b92915050565b60006020828403121561079157610790610740565b5b600061079f84828501610766565b91505092915050565b6107b181610704565b81146107bc57600080fd5b50565b6000813590506107ce816107a8565b92915050565b6000602082840312156107ea576107e9610740565b5b60006107f8848285016107bf565b91505092915050565b600081519050919050565b600081905092915050565b60005b8381101561083557808201518184015260208101905061081a565b83811115610844576000848401525b50505050565b600061085582610801565b61085f818561080c565b935061086f818560208601610817565b80840191505092915050565b6000610887828461084a565b915081905092915050565b600082825260208201905092915050565b7f23436f6d6d756e69747950726f7879466163746f72793a20436f756c646e277460008201527f206372656174652061206e657720636f6d6d756e69747920636c6f6e65210000602082015250565b60006108ff603e83610892565b915061090a826108a3565b604082019050919050565b6000602082019050818103600083015261092e816108f2565b9050919050565b7f4f776e61626c653a206e6577206f776e657220697320746865207a65726f206160008201527f6464726573730000000000000000000000000000000000000000000000000000602082015250565b6000610991602683610892565b915061099c82610935565b604082019050919050565b600060208201905081810360008301526109c081610984565b9050919050565b7f4f776e61626c653a2063616c6c6572206973206e6f7420746865206f776e6572600082015250565b60006109fd602083610892565b9150610a08826109c7565b602082019050919050565b60006020820190508181036000830152610a2c816109f0565b9050919050565b7f455243313136373a20637265617465206661696c656400000000000000000000600082015250565b6000610a69601683610892565b9150610a7482610a33565b602082019050919050565b60006020820190508181036000830152610a9881610a5c565b905091905056fea264697066735822122076dc1eb6a4cfa130503a6debff455a2cfbdda99644945309da00bf4a988e4d9464736f6c634300080a0033",
  "devdoc": {
    "kind": "dev",
    "methods": {
      "owner()": {
        "details": "Returns the address of the current owner."
      },
      "renounceOwnership()": {
        "details": "Leaves the contract without owner. It will not be possible to call `onlyOwner` functions anymore. Can only be called by the current owner. NOTE: Renouncing ownership will leave the contract without an owner, thereby removing any functionality that is only available to the owner."
      },
      "transferOwnership(address)": {
        "details": "Transfers ownership of the contract to a new account (`newOwner`). Can only be called by the current owner."
      }
    },
    "version": 1
  },
  "userdoc": {
    "kind": "user",
    "methods": {},
    "version": 1
  },
  "storageLayout": {
    "storage": [
      {
        "astId": 1922,
        "contract": "contracts/CommunityProxyFactory.sol:CommunityProxyFactory",
        "label": "_owner",
        "offset": 0,
        "slot": "0",
        "type": "t_address"
      },
      {
        "astId": 2510,
        "contract": "contracts/CommunityProxyFactory.sol:CommunityProxyFactory",
        "label": "implementationCommunity",
        "offset": 0,
        "slot": "1",
        "type": "t_address"
      },
      {
        "astId": 2512,
        "contract": "contracts/CommunityProxyFactory.sol:CommunityProxyFactory",
        "label": "implementationCollection",
        "offset": 0,
        "slot": "2",
        "type": "t_address"
      },
      {
        "astId": 2515,
        "contract": "contracts/CommunityProxyFactory.sol:CommunityProxyFactory",
        "label": "allClones",
        "offset": 0,
        "slot": "3",
        "type": "t_array(t_address)dyn_storage"
      }
    ],
    "types": {
      "t_address": {
        "encoding": "inplace",
        "label": "address",
        "numberOfBytes": "20"
      },
      "t_array(t_address)dyn_storage": {
        "base": "t_address",
        "encoding": "dynamic_array",
        "label": "address[]",
        "numberOfBytes": "32"
      }
    }
  }
}